:100000000C94EE020C9435030C9435030C943503D8
:100010000C9435030C9435030C9435030C94350380
:100020000C9435030C9435030C94DF280C94B129FF
:100030000C94ED1F0C9435030C9435030C9435038C
:100040000C9435030C9435030C9435030C94350350
:100050000C9435030C9455200C9435030C94350303
:100060000C9435030C9435030C9435030C94350330
:100070000C9435030C9435030C9435030C94350320
:100080000C9435030C9435030C9435030C94350310
:100090000C9435030C9435030C9435030C94350300
:1000A0000C9435030C9435030C9435032D0E300E4F
:1000B000380E3D0E420E470E4C0E510E560E5B0E84
:1000C000600E650E670E6A0E6D0E700E730E760E64
:1000D000780E7D0E3715371569156915B615D615C5
:1000E0005B175B171816B516C616C61627173017F6
:1000F0005B175417DD17DD17EF17EF17E617EF172C
:10010000EF17EF17DD17DD17EB17EF17EF17EB17EB
:100110001E2A452A372B452A372B912AB42A372BFA
:100120000A2B192B165C1E001F0020002100220044
:10013000230024002500260027002D002E000000AB
:100140002A002B00000014001A00080015001700F8
:100150001C0018000C00120013002F0030003100AA
:10016000E000000004001600070009000A000B0070
:100170000D000E000F003300340028000000E100E5
:1001800000001D001B0006001900050011001000F2
:100190003600370038000000E5000000E000E20013
:1001A0000000E300000000002C0000000000000040
:1001B000E700E60000000151E40035003A003B0092
:1001C0003C003D003E003F00400041004200A800CE
:1001D000AA00A90000004C00C25C0000010052000F
:1001E0000100010001000100010001000100AE005A
:1001F000BC00BB00005C01000000500051004F003B
:1002000001000100010001000100010001000100E6
:1002100001000000010000000100010001000100D8
:1002200001000100010001000100010000000100C7
:1002300000000100010000000100000000000100BA
:1002400000000000000001000100000001000100AA
:1002500000047F3F1F643214643214783C1E1E1465
:100260000A052223252628292A2C2D2F3032333522
:1002700036383A3B3D3E4042434547494A4C4E5052
:1002800051535557595A5C5E6062646668696B6D7C
:100290006F71737577797B7D7F81838587898A8C80
:1002A0008E90929496989A9C9E9FA1A3A5A7A8AA87
:1002B000ACAEAFB1B3B4B6B8B9BBBCBEBFC1C2C3BC
:1002C000C5C6C7C9CACBCCCDCED0D1D2D2D3D4D556
:1002D000D6D7D7D8D9D9DADADBDBDBDCDCDCDCDC7F
:1002E000DDDDDDDDDCDCDCDCDCDBDBDBDADAD9D957
:1002F000D8D7D7D6D5D4D3D2D2D1D0CECDCCCBCAE5
:10030000C9C7C6C5C3C2C1BFBEBCBBB9B8B6B4B30A
:10031000B1AFAEACAAA8A7A5A3A19F9E9C9A9896A0
:100320009492908E8C8A89878583817F7D7B797773
:100330007573716F6D6B6968666462605E5C5A5953
:1003400057555351504E4C4A4947454342403E3D14
:100350003B3A3836353332302F2D2C2A29282625A2
:100360002322FFAA7F554000010101010101010183
:100370000102020202020202020203030303030358
:100380000303040404040404040505050505060626
:1003900006060607070707070808080809090909E4
:1003A0000A0A0A0B0B0B0C0C0C0D0D0D0E0E0E0F8A
:1003B0000F0F10101111111212131314141515161A
:1003C000161717181819191A1A1B1B1C1D1D1E1E8B
:1003D0001F202021222223242425262627282929DC
:1003E0002A2B2C2D2D2E2F30313232333435363707
:1003F00038393A3B3C3D3E3F404142434445464705
:1004000048494A4C4D4E4F50515354555658595ADD
:100410005B5D5E5F616264656668696B6C6D6F7081
:1004200072737577787A7B7D7E8082838587888AF0
:100430008C8E8F91939596989A9C9EA0A2A3A5A727
:10044000A9ABADAFB1B3B5B7BABCBEC0C2C4C6C923
:10045000CBCDCFD1D4D6D8DBDDDFE2E4E7E9EBEEDC
:10046000F0F3F5F8FAFDFF0403300000000A03443E
:10047000005A0036003000000010034B00420044D8
:1004800000460061006E00730000000403090409C7
:10049000023B00020100A0FA09040000010301016F
:1004A0000009211101000122400007058103080015
:1004B0000A090401000103000000092111010001E3
:1004C00022C0000705820320000A1201100100006B
:1004D00000085A44602201000102030105010902DB
:1004E000A10185020901A1000509190129051500CD
:1004F00025019505750181029501750381010501AD
:10050000093009311581257F950275088106093862
:100510001581257F950175088106050C0A3802159D
:1005200081257F950175088106C0C005010980A15C
:100530000185031A81002A83001601002603009515
:100540000175108100C0050C0901A10185041A0183
:10055000002A9C02160100269C029501751081005C
:10056000C005010906A1018505050719E029E71560
:100570000025019508750181020507190029EF156D
:1005800000250195F07501810205081901290595DD
:100590000575019102950175039101C005010906D8
:1005A000A101050719E029E7150025019508750146
:1005B00081029501750881010507190029FF1500C1
:1005C00026FF009506750881000508190129059583
:1005D0000575019102950175039101C011241FBE9B
:1005E000CFEFDAE0DEBFCDBF04B603FE27C08091B7
:1005F000AA029091AB02A091AC02B091AD028730FB
:10060000904BA740B04BD1F41092AA021092AB02CB
:100610001092AC021092AD0214BE84B7877F84BFE3
:100620000FB6F894A895809160008861809360006F
:10063000109260000FBEE0E0F8E3099511E0A0E041
:10064000B1E0E8E7F8E502C005900D92AC35B107DE
:10065000D9F722E0ACE5B1E001C01D92AA3AB20799
:10066000E1F70E9408260C943A2C0C9400000C949C
:100670000007229A2A9A08950E94FF060C943903D3
:1006800081FF02C02A9801C02A9A0C94910381E04C
:10069000089581E008950C9449031F93CF93DF934D
:1006A00000D000D01F92CDB7DEB749835A83209186
:1006B000820189819A81211112C0662349F00E942A
:1006C000021D182F682F89819A810E94A71C03C0E0
:1006D0000E94D61C182F69817A81812F04C00E9444
:1006E000021D69817A810F900F900F900F900F90EB
:1006F000DF91CF911F910C941D04FC014081518129
:100700006281738184810C944D030E94321E811199
:1007100002C00E94E51E0E94CF0F0C943C030C9473
:100720003703089581E008950C949203CF93C82F66
:100730000E9440038C2F0E949403CF910895089546
:100740000E94CD170E949F032FEF84E39CE021506D
:1007500080409040E1F700C000000C947B200F9394
:100760001F93CF93DF93EC010E947D038C01BE01A8
:100770000E944B03882309F456C0BE01C8010E94A1
:100780008310882309F44FC0BE01C8010E94C41021
:10079000882309F448C0BE01C8010E94160E8823B0
:1007A00009F441C08A81882371F001158CE518078E
:1007B00039F00E3D8CE5180731F40E94E51E33C078
:1007C0000E94A00330C006311C4531F50E94821DF5
:1007D000282F8A814091100150911101882379F0CE
:1007E0002A7A91E009F490E090935C01911102C0A3
:1007F00069E201C065E3CA010E94511F0AC08091ED
:100800005C01811102C069E201C065E3CA010E9476
:100810005C1F0E94CE1D07C0CE01DF91CF911F91BA
:100820000F910C94470380E0DF91CF911F910F91BE
:10083000089580E090E0089508959FE0799FF00189
:1008400011249BE4899FE00DF11D1124E60FF11D99
:10085000EE0FFF1FEC5DFE4F859194910895880F78
:10086000991FFC01E05BFD4F859194910895CF9312
:10087000DF930E941D040E942806EC01811521E5EA
:10088000920708F042C0811560E5960708F02FC175
:10089000883E910500F5803E910508F0D5C1883A63
:1008A000910570F4853A910508F0A4C08130910556
:1008B00009F4CAC108F47BC1049708F0C5C177C127
:1008C0008F3B910508F4A1C0803C910508F46FC1ED
:1008D000805C9109FBC0C11580E3D80780F4C11585
:1008E00090E2D90708F0F0C0C03FD10508F45FC11D
:1008F000CF3FD10511F008F0A7C1D065A5C1C11542
:1009000020E4D20708F0F0C0E5C0811569E596073C
:1009100060F5C11588E5D80708F035C1C11594E523
:10092000D90778F4C11523E5D20708F011C1C11524
:1009300062E5D60708F0F6C0DC2FCC27C16FD06A7D
:1009400083C1C11585E5D80708F418C1C11596E51E
:10095000D90708F02CC18C2F0E94BC068F71C82FBC
:10096000D0E0DC2FCC27D0626FC18D3B2CE5920705
:1009700009F414C1E0F4CB3B8CE5D80709F408C1B5
:1009800008F009C1C1152AE5D20708F010C18C2F63
:100990008F700E94BC0694E0D695C7959A95E1F7B2
:1009A000CF70D0E0DC2FCC27D069C82B4DC1803C64
:1009B0009C4509F4F9C0C13C8CE5D80760F4CE3BF6
:1009C0009CE5D90709F4EDC0CF3BDC4509F0EFC049
:1009D000C0E0D2ED39C1CE0190568115904208F0A9
:1009E000E6C08D2F8F710E94BC06DD27D0628F710B
:1009F000D82B2AC1853A910509F4DCC0863A9105C5
:100A000009F0DBC0C2E8D0E41FC1883A910509F4BF
:100A1000D7C0893A910509F4D6C08A3A910509F4FC
:100A2000D5C08B3A910509F4D4C08C3A910509F4EC
:100A3000D3C08B3B910509F4D2C08C3B910509F4DE
:100A4000D1C08D3A910509F4D0C0803B910509F4DD
:100A5000CFC08E3A910509F4CEC08F3A910509F4C2
:100A6000CDC0813B910509F4CCC0823B910509F4CE
:100A7000CBC0833B910509F4CAC0843B910509F4BE
:100A8000C9C0853B910509F4C8C0863B910509F4AE
:100A9000C7C0873B910509F4C6C0883B910509F49E
:100AA000C5C0893B910509F4C4C08D3B910509F48B
:100AB000C3C08E3B910509F4C2C08A3B910509F47D
:100AC000C1C0C0E0D4E4C0C0CE019F700E942F041A
:100AD000EC01BAC0CE019927D3FF03C0EC01D86C5A
:100AE000B3C0EC01D06CB0C0DF70D06AADC0837011
:100AF00021E030E002C0220F331F8A95E2F73C6804
:100B0000CE0174E0969587957A95E1F78370382B3E
:100B1000CF70C695C69580E2C89FE0011124C22B14
:100B2000D32B92C04C2F4695469590E2499FA00149
:100B30001124C370DD2721E030E0C90102C0880F15
:100B4000991FCA95E2F7EC01C42BD52BDC687CC059
:100B50004C2F4695469580E2489FA0011124C37012
:100B6000DD2721E030E0C90102C0880F991FCA9536
:100B7000E2F7EC01C42BD52BDA6866C0DC2FCC275A
:100B8000C46FD06A61C0DC2FCC27C06FD06A5CC054
:100B9000C0E0D4ED59C0C0E0D5ED56C0C0E0D1ED05
:100BA00053C0C0E0D0ED50C0C0E0D3ED4DC0C0E0B8
:100BB000D0E04AC0C1E8D0E447C0C3E8D0E444C0B4
:100BC000C2EED4E441C0C9EED4E43EC0CAEED4E4DF
:100BD0003BC0C5EBD4E438C0C6EBD4E435C0C3EBAE
:100BE000D4E432C0C4EBD4E42FC0C7EBD4E42CC0AF
:100BF000CCECD4E429C0CDECD4E426C0C3E8D5E4E1
:100C000023C0CAE8D5E420C0C2E9D5E41DC0C4E9C8
:100C1000D5E41AC0C1E2D6E417C0C3E2D6E414C0DA
:100C2000C4E2D6E411C0C5E2D6E40EC0C6E2D6E402
:100C30000BC0C7E2D6E408C0CFE6D4E405C0C0E7E5
:100C4000D4E402C0CAE2D6E4CE01DF91CF91089588
:100C50008238910569F1B0F48133910509F46DC0D2
:100C600048F48932910509F463C08A32910509F488
:100C700069C008958533910509F455C089339105FC
:100C8000B9F00895833E910569F138F4803E9105ED
:100C9000B1F0823E910509F10895863E9105A9F1D2
:100CA000873E9105B9F1843E910509F064C023C0E7
:100CB00020919B0220FD4FC021FD4DC008958091E1
:100CC0009B0280FD44C080919C0280FF44C08091C3
:100CD0009B0284FD42C083EE4DC080919B0282FF47
:100CE00038C0F5CF80919B0282FD33C080919C0279
:100CF00080FD31C0ECCF80919C0281FF32C0809199
:100D00009B0284FD2AC087EE35C080919B0283FF41
:100D100026C0F5CF80919B0283FD21C080919C026B
:100D200081FD1FC0ECCF80919B0285FD1CC01DC0C2
:100D300080919B0285FD19C016C080919B0286FDA3
:100D400016C017C080919B0286FD13C010C089E3B6
:100D500011C082EE0FC080EE0DC080E00BC086EEA9
:100D600009C084EE07C089E205C085E303C08AE2BA
:100D700001C081E390E0089590919B0292FF0DC025
:100D8000282F2871283019F4877F846006C0282F07
:100D90002471243011F48B7F886093FF0DC0282FBD
:100DA0002871283119F4877E846106C0282F2471A8
:100DB000243111F48B7E886120919C0220FF0DC0AC
:100DC000382F3871383019F4877F816006C0382F8A
:100DD0003171313011F48E7F886021FF0DC0282FD2
:100DE0002871283119F4877E816106C0282F21716E
:100DF000213111F48E7E886194FD877E08950895D7
:100E00000895E82FF0E0EE0FFF1FEB5AFD4F8081B1
:100E1000918108950895A2E3B1E041E050E025E01A
:100E20002A0F8D91E82FE295EF70F0E031A18F70DD
:100E3000BA0102C0660F771F8A95E2F7CB01962FA1
:100E40009095932391A392A1892B82A32A13E9CF92
:100E5000A3E2B1E041E050E02FE02A0F8D91E82FAE
:100E6000E295EF70F0E031A18F70BA0102C0660F19
:100E7000771F8A95E2F7CB01962F9095932391A344
:100E800092A1892B82A32A13E9CFEBE4F2E0A5E536
:100E9000B2E0119211921D921D9272E0E535F707B2
:100EA000C1F785E00E94ED070C9485035F926F9275
:100EB0007F928F929F92AF92BF92CF92DF92EF92EA
:100EC000FF920F931F93CF93DF9302E311E0ABE404
:100ED000B2E0612CEE24E394F12C5D018D909C90A6
:100EE000119711961C921E92E80189918E01E82FAC
:100EF000E295EF70F0E091A18F70A70101C0440F5F
:100F00008A95EAF7892F842B81A382A1542E5094CD
:100F1000852182A3D0EADA95F1F783E2C82E81E039
:100F2000D82E80E090E0E60179906E01272D229581
:100F30002F7030E0E90168A12D913C91119770E08C
:100F4000D72DDF7002C075956795DA95E2F760FDE1
:100F500008C0B701082E02C0660F771F0A94E2F797
:100F600002C060E070E0262B372B11963C932E9345
:100F700001968F309105B9F681A1D52DD823D1A343
:100F800082A1482B42A3129681E0F5012081318194
:100F90008216930609F480E0682AF2E0A535BF07BF
:100FA00009F09BCF262D45E065E572E08BE492E0E9
:100FB0000E94EE070E948F03862DDF91CF911F9133
:100FC0000F91FF90EF90DF90CF90BF90AF909F90E8
:100FD0008F907F906F905F9008950895FF920F9388
:100FE0001F93CF93DF93F82E092F162FD72FC42FDF
:100FF000222349F081E080935F010E941F2090939B
:101000005E0180935D0180915F018823D9F080911A
:101010005D0190915E010E942B20069798F0EF2DC4
:10102000F02FA12FBD2F80E090E04C2F50E08417CF
:10103000950734F4219131912D933D930196F7CF8B
:1010400010925F01DF91CF911F910F91FF90089552
:10105000AF92BF92CF92DF92FF920F931F93CF93E5
:10106000DF93D62E372FE82FF0E0711106C0E95933
:10107000FC4F6491762F862F75C0C72FD0E0E959B9
:10108000FC4F2491F22E022F10E046E0649FC00135
:101090001124EFEFF0E0BF010E947B2BAB016BEA64
:1010A0006403C001659F900D11248D0D911D8D0D60
:1010B000911D982F990F890FDF01AC1BBD0B0A9F63
:1010C000B0010B9F700D1A9F700D1124972F839FF5
:1010D000D0011124AB2FBB276F01CA1ADB0A0C9D6C
:1010E000D0010D9DB00D1C9DB00D11245F01A81AFB
:1010F000B108AC9E6001AD9ED00CBC9ED00C1124FA
:10110000CD2DDD27EC1BFD0B0E9FE0010F9FD00DB9
:101110001E9FD00D1124ED2F4230510591F04CF45B
:1011200041155105E1F041305105B9F4E22F2B2F63
:1011300016C04430510569F044F04630510579F04D
:101140000CC0E22F272F9D2F0AC0272F9F2DEB2F9A
:1011500006C0E72F922F2D2F02C0E72F9B2F6E2F57
:10116000722F892FDF91CF911F910F91FF90DF9008
:10117000CF90BF90AF9008950895CF93DF93762FCF
:10118000E901682F842F0E942808798368838A8365
:10119000DF91CF91089580915F02282F269530E04E
:1011A0002115310519F48170826005C025323105A1
:1011B00024F08170886480935F02089588E090E055
:1011C0000C94FA2BCF93DF9300D000D0CDB7DEB7CD
:1011D000AB01BC0149835A836B837C830E94CB089B
:1011E00049815A816B817C8188E090E00F900F905B
:1011F0000F900F90DF91CF910C94182CEFE5F2E057
:1012000083E0808311828FEF8283838314826081E5
:101210007181828193810C94E20880915F0280FF4A
:1012200002C08695089580E008958091630283301E
:1012300018F48F5F8093630260915F027091600287
:1012400080916102909162020C94E20880916302A5
:10125000882319F081508093630260915F0270913E
:10126000600280916102909162020C94E2086091A8
:10127000040170E080915F0280FF0AC080916401E8
:1012800023E0829FC00111248C599D4F0C941310B0
:101290008091630190910301891780F7E82FF0E0B6
:1012A0009F01220F331FE20FF31FEC59FD4F1182F4
:1012B000108212828F5FF0CF90915F0290FF16C074
:1012C0009091630120910301921770F4E92FF0E0EF
:1012D000DF01AA0FBB1FEA0FFB1FEC59FD4F8183F3
:1012E000608342839F5FF0CF0C9437090895CF93BA
:1012F000DF9300D01F92CDB7DEB790915F0290FFD1
:101300000AC09E012F5F3F4F0E94BD084B8169813B
:101310008A810E945C090F900F900F90DF91CF910E
:101320000895CF93DF93EC01EC81F0E0EE59FD4F8F
:101330004491EFE5F2E0628181810E9477098C811E
:101340008F5F8C83DF91CF910895CF93DF93EC0172
:10135000EFE5F2E0438162818C810E9477098C8104
:101360008F5F8C83DF91CF9108950F931F93CF935D
:10137000DF9300D01F92CDB7DEB78C018091600162
:1013800081110AC09E012F5F3F4F4FEF6FEF0E9408
:10139000BD088A8180936001F8018481813051F019
:1013A00028F0823061F4409160010AC080916001B0
:1013B00040E007C06091600140E080E003C040E091
:1013C00080E060E00E945C09F801248130E0C901FE
:1013D000019663E070E00E948F2B84830F900F9042
:1013E0000F90DF91CF911F910F910895AF92BF920F
:1013F000CF92DF92EF92FF920F931F93CF93DF93E1
:1014000000D01F92CDB7DEB7182FF62E042FE22E94
:1014100090915F0290FF6EC0E92FE695AE2FB0E08D
:10142000A95CBE4F8C9180936C019E7F923061F4D9
:101430009E012F5F3F4F812F0E94BD084B81698124
:101440008A810E945C0944C0823019F400916202D2
:101450003FC0863019F4109160023AC08930D9F348
:101460008931B1F5E9518E2F8170D82EE695F0E0E3
:10147000EE59FC4FA590B490C12CBB2460910201A1
:10148000C61620F5EC2DF0E0EA9DC001EB9D900D15
:10149000FA9D900D112470E00E947B2B812FD110BA
:1014A00002C0860F01C0861B90916301E90FF11DF8
:1014B0009F01220F331FE20FF31F9F012C593D4F55
:1014C000402F6F2D0E94BD08C394D8CF0E943709CA
:1014D00010936002F092610200936202EE2051F0DC
:1014E00060915F027091600280916102909162024E
:1014F0000E94E2080F900F900F90DF91CF911F9103
:101500000F91FF90EF90DF90CF90BF90AF90089534
:10151000EFE5F2E09181282F4381628188E0890F15
:101520000C94F60981E00C94880AEFE5F2E09181D1
:10153000282F4381628188EF890F0C94F60981E09E
:101540000C94950AEFE5F2E0628128E0620F08F45E
:101550006FEF282F438181810C94F60981E00C9470
:10156000A20AEFE5F2E0628128E0621B08F460E085
:10157000282F438181810C94F60981E00C94B10AF3
:10158000EFE5F2E0438128E0420F08F44FEF282F07
:10159000628181810C94F60981E00C94C00AEFE528
:1015A000F2E0438128E0421B08F440E0282F6281EA
:1015B00081810C94F60981E00C94CF0A20E00C9410
:1015C000F609FF920F931F93CF93DF93EC01F12C59
:1015D0000FEF10E060910201F616E8F4209163012C
:1015E00030E02F0D311DC901880F991F280F391FB9
:1015F0002C593D4F70E0C8010E948F2B962F8C8193
:101600004091620260916102F99E800D11240E9456
:10161000BD08F394DFCF0E9437099A818C8190FF37
:1016200002C08F5F01C081508C83DF91CF911F91E9
:101630000F91FF900895BF92CF92DF92EF92FF92A9
:101640000F931F93CF93DF93FC01828180FF02C031
:101650000FEF01C001E010E080910201181708F0BF
:1016600040C0C12ED12C80916301E601C80FD11D6D
:10167000CE01880F991FC80FD91FCC59DD4F198291
:1016800018821A8234E0E32EF12CB12C8091620191
:101690008B0D813114F08F7005C087FF03C09091CE
:1016A0000201890F082E000C990BC816D90691F477
:1016B000809162028E9DA0018F9D500D1124559541
:1016C0004795559547959E01609161028091600212
:1016D0000E94BD08B00EF1E0EF1AF108B9F61F5FE5
:1016E000BBCF0E94370980916201013031F4811132
:1016F00002C080910201815007C090E00196609184
:10170000020170E00E948F2B80936201DF91CF91E4
:101710001F910F91FF90EF90DF90CF90BF900895B1
:10172000CF938091630190910301891770F4E82FA2
:10173000F0E09F01220F331FE20FF31FEC59FD4F22
:101740001182108212828F5FF0CFC0E0609102019F
:10175000C617B8F5EC2FF0E070E0CF010E948F2B98
:1017600040916301480F80916101082E000C990B94
:1017700050E0E817F907C4F020910101022E000C97
:10178000330B2E173F0784F09A01220F331F240FCB
:10179000351F2C593D4F409162026091610280914A
:1017A00060020E94BD080BC0FA01EE0FFF1F4E0F32
:1017B0005F1FFA01EC59FD4F118210821282CF5F38
:1017C000C5CF0E9437092091000180916101820FED
:1017D0008093610190910101920F9093010119167C
:1017E0005CF4082E000C990B4091020150E041502E
:1017F0005109841795071CF0219520930001CF9182
:1018000008950F931F93CF93DF938C01FC01848184
:10181000958101968170992795838483C0E0D5E5F1
:1018200080910201C817F8F42091630130E02C0F79
:10183000311DC901880F991F280F391F2C593D4FA1
:101840004C2F4695F80184819581840F911D8170FC
:1018500040916202609161028D9F802D11240E944F
:10186000BD08CF5FDDCFDF91CF911F910F910C9419
:1018700037090F931F93CF93DF93EC0100E010E043
:1018800080910201282F30E00217130724F5909170
:1018900063019801290F311DA901440F551F240F21
:1018A000351F2C593D4F869590E04C81081719073C
:1018B0001CF4442331F002C0411103C04091620284
:1018C00001C040E060916102809160020E94BD0809
:1018D0000F5F1F4FD5CF0E9437092C8130E02F5F5B
:1018E0003F4F217033272C83DF91CF911F910F91B0
:1018F0000895EFE5F2E080818E7F808360817181C1
:10190000828193810E94E20810926D012FEF80E79F
:1019100092E0215080409040E1F700C000000C941C
:101920003709EFE5F2E080818E7F808310926D01B0
:101930002FEF80E792E0215080409040E1F700C017
:1019400000000C94370960915F02669570E04BE0EF
:1019500050E085E091E00E94E52B892B19F481E0AD
:1019600080936D010E941F20909366018093650112
:10197000089590915F0290FF35C09170811102C06F
:10198000926006C0853210F0986402C0880F982BD0
:1019900090935F02662351F060915F027091600244
:1019A00080916102909162020E94E20860915F0260
:1019B000669570E04BE050E085E091E00E94E52BF9
:1019C000892B19F010926D0102C00E94A30C81E0D6
:1019D000809368014091620260916102809160028F
:1019E0000C94DE0A0895682F90915F02969581E02D
:1019F000890F853208F081E00C94B90C81E00C94D9
:101A0000F30C682F90915F0296958FEF890F09F480
:101A100084E20C94B90C81E00C94010D61E00C940B
:101A2000B90CEFE5F2E080818160808386950C94AB
:101A30000E0D80915F0280FD0C94790C0C94110DB9
:101A400060E00C94B90C80916B0181112EC00E9452
:101A5000321E811104C00E94E51E0E94FE080E94F1
:101A6000DE0860935F02709360028093610290933E
:101A700062026E7F61F40E94FE080E94DE0860939D
:101A80005F027093600280936102909362020E94F1
:101A9000CB0810926D0180915F0280FF03C0869594
:101AA0000E94200D81E080936B010895EFE5F2E044
:101AB00080818160808386950C94200D10926D0149
:101AC00008950F931F93CF93DF9380916D01882327
:101AD00009F48CC080916C01E0915F02E695E81BEF
:101AE000E0936701823049F4F0E0E25AFD4FE4915F
:101AF000CE2FD0E001E919E049C0863049F4F0E08A
:101B0000E55AFD4FE491CE2FD0E005EA19E03EC042
:101B1000893051F4E695F0E0E85AFD4FE491CE2F7C
:101B2000D0E001EE1AE032C08F3051F4E695F0E0DB
:101B3000EB5AFD4FE491CE2FD0E00BE11BE026C025
:101B4000853149F4F0E0EE5AFD4FE491CE2FD0E01C
:101B500000E91BE01BC0883181F0833239F4E0E5F5
:101B6000F2E0C591D49105EB19E010C0843251F434
:101B7000C4EFD1E009E31CE009C0C8EED3E001E006
:101B80001CE004C0C0EDD7E00CEB18E080916801C8
:101B9000882389F0109268010E941F209E012095E1
:101BA0003095820F931F9093660180936501109288
:101BB0006A011092690180916501909166010E940D
:101BC0002B208C179D0790F0E0916501F091660144
:101BD000CE0FDF1FD0936601C093650185E691E0CB
:101BE000F801DF91CF911F910F910994DF91CF916F
:101BF0001F910F910895882311F0FA0101C0FB0194
:101C00000994CF93DF93C82FD62F0E940D098C170C
:101C100040F00E940D098D1720F4DF91CF910C94B4
:101C2000FE0C8C2FDF91CF910C940E0D0F931F9310
:101C3000CF93FB01C281CC2309F463C08C010E94C5
:101C4000821D8272F801E25CFC45E431F10508F086
:101C500059C0EA5AFF4F0C94C52B0E94190D06C0BB
:101C60004BE05DE06EEF7CE00E94FB0DC0E04AC0FF
:101C70004EEF5CE06BE07DE0F7CF4FE95AE062E9C0
:101C80007AE0F2CF42E95AE06FE97AE0EDCF4DEB2E
:101C90005AE06EEA7AE0E8CF4EEA5AE06DEB7AE07D
:101CA000E3CF4BED5AE06CEC7AE0DECF4CEC5AE03F
:101CB0006BED7AE0D9CF46E259E065E179E0D4CF27
:101CC00045E159E066E279E0CFCF81E017C065E0F9
:101CD00082E010C068E086E00DC06EE089E00AC0D6
:101CE00064E18FE007C067E185E104C088E106C0D8
:101CF00062E289E10E94010EB9CF83E20E940E0DDB
:101D0000B5CFC1E08C2FCF911F910F9108950E9404
:101D1000321E811102C00E94E51E0E946D1E80933A
:101D20009402282F26952695269530E026303105F9
:101D300024F087708862809394028091940280FFDF
:101D400004C086958695869501C080E00C94720F3C
:101D500020919402822F869586958695482F50E093
:101D60004530510554F48F5F982F990F990F990FB3
:101D7000822F8770892B80939402809194028160D6
:101D8000809394020E94711E80919402869586959C
:101D900086950C94720F80919402982F9695969543
:101DA0009695A1F0915E990F990F990F8770892BE5
:101DB00080939402887F91E009F490E080919402EE
:101DC00090FB80F9809394020E94711E809194028E
:101DD0008695869586950C94720F8091940280FD6D
:101DE00013C0816080939402813019F489E080935C
:101DF0009402809194020E94711E809194028695B3
:101E0000869586950C94720F08958091940280FFB8
:101E100008C08E7F809394020E94711E80E00C9413
:101E2000720F08958091940280FD0C94050F0C941C
:101E3000ED0E90919402892F8695869586958F5FF9
:101E40008F719770863038F4880F880F880F892B30
:101E50008093940202C09093940280919402887FB0
:101E600091E009F490E08091940290FB80F98093D6
:101E700094020E94711E80919402869586958695A3
:101E80000C94720F863008F085E090919402977060
:101E9000282F220F220F220F922B90939402987FCB
:101EA00021E009F420E09091940220FB90F99093B6
:101EB00094020C94720F0E94420F809194020C9431
:101EC000711EE82FE295EF70F0E032A1282F2F70FD
:101ED00081E090E001C0880F2A95EAF7809583237E
:101EE00082A30895CF92DF92EF92FF92863030F472
:101EF000811105C0909180009F7D04C085E0909184
:101F00008000906290938000282F30E0AFEFBFEF09
:101F10000E94CB2B25E030E040E050E00E94A32B54
:101F20002C3784E138074105510530F4C90169E0D7
:101F300070E00E947B2B29C0DA01C9018A50974DBD
:101F4000AF4FBF4F6627782F892F9A2F25EF38E2A2
:101F500041E050E00E94A32B69017A01CA01B90156
:101F60000E946B2B9B01AC01C701B6010E946B2B39
:101F7000BB27A92F982F872F009721E0A207B10533
:101F800011F0BC0102C06FEF7FEF70938B00609384
:101F90008A00FF90EF90DF90CF9008950895269AE1
:101FA00086E30E94610F82E28093800089E1809342
:101FB00081008FEF9FEF90938700809386000C94B1
:101FC000870E2EB1342F309523233EB1432B3FB7DC
:101FD000F894FC01680F791FE617F70789F08191E3
:101FE00098E04EB9000000C087FF2EB9880F0000AE
:101FF00000C000C000C02EB900C09A9591F7ECCF88
:102000003FBF08952DB1242B2DB99B01220F331F03
:10201000620F731F0E94E10F87EC90E00197F1F7C8
:1020200000C00000089544E00C9402100F931F9329
:10203000CF93DF93C62FD42F022FFC0182818823F8
:10204000C9F0609370010E941F2090936F018093EC
:102050006E0180E28C0F883008F050C0C77081E0BC
:1020600001C0880FCA95EAF7DF91CF911F910F91B8
:102070000C94F71410917001161330C080916E010A
:1020800090916F010E942B20883C910538F5C0E2A9
:10209000CD0F1D17B9F080E2810F883040F4177022
:1020A00081E001C0880F1A95EAF70E94FE14C8303B
:1020B00048F481E09D2F977001C0880F9A95EAF748
:1020C0000E94F714802F0E94E414C830B8F4D7702F
:1020D00081E001C0880FDA95EAF70AC080E28C0F30
:1020E000883060F4C77081E001C0880FCA95EAF7B4
:1020F000DF91CF911F910F910C94FE14DF91CF913E
:102100001F910F9108959C01CB01233F4CE53407AB
:10211000F9F078F4283DFCE53F07B9F0293D4CE59E
:10212000340711F1273D3C4531F526E241EE61EEE1
:102130001EC0253FFCE53F0799F070F0263F3C4567
:10214000D1F427E245EE66EE12C027E245EE0EC05E
:1021500026E241EE60EE0BC027E245EE64EE07C0DA
:1021600026E241EE62EE03C028E241E065EE0E9405
:10217000161080E00895FC018281882319F01092E6
:102180007001089581E00895CF93DF93EC01FB0186
:102190008281882309F41FC1C230FCE5DF0708F4FF
:1021A0001BC1C6319CE5D90738F09E012A5F3C452A
:1021B0002930310508F010C10E944F1E90939C02F7
:1021C00080939B02C031ECE5DE0709F4C3C008F040
:1021D00041C0C8308CE5D80709F49AC0F0F4C43087
:1021E000ECE5DE0709F487C068F4C2308CE5D80757
:1021F00009F477C0C330DC4509F0E3C080919B024D
:10220000826076C0C630ECE5DE0709F46EC008F0E7
:102210007BC080919B0288606BC0CC308CE5D80776
:1022200009F485C068F4CA30ECE5DE0709F474C02F
:1022300008F079C00E94CD1780919B02806858C039
:10224000CE308CE5D80709F476C008F07FC08091C5
:102250009B028BC0CB3FECE5DE0709F44FC018F5BD
:10226000C3318CE5D80709F47DC078F4C131ECE5C1
:10227000DE0709F473C0C231DC4509F0A2C00E9438
:10228000CD1780919B028F7733C0C5318CE5D8077D
:1022900009F472C008F486C0CA3FDC4509F091C059
:1022A00080919C023EC0CF3FFCE5DF0709F45FC090
:1022B00058F4CD3F9CE5D90709F444C008F43FC069
:1022C00080919C0282602DC0C130FDE5DF0709F4DA
:1022D00075C008F45DC0C230DD4509F072C080E011
:1022E0006EC080919B02816003C080919B028061DF
:1022F00080939B0266C080919B0211C080919C02DA
:10230000826080939C025DC080919B028062F0CFCE
:1023100080919B028064ECCF80919B0288608460F6
:10232000E7CF8160EECF80919B028E7FE1CF8091DD
:102330009B028D7FDDCF80919B02877FD9CF8091DB
:102340009C0218C080919C028D7FDBCF80919B0204
:102350008F7ECECF80919B028F7DCACF80919B02D2
:102360008F7BC6CF80919B02877F8B7FC1CF80916F
:102370009C028D7F8E7FC5CF80919B0282FB22279E
:1023800020F991E0922790FB82F990FB83F9B0CF7E
:1023900080919C02982F909591708E7F892B90FB55
:1023A00081F9AFCF0E94CD1780919B0287FB222736
:1023B00020F991E0922790FB87F99ACF81E00E9463
:1023C000E71E80919B0290919C020E94601E0E94D9
:1023D000CD1780E001C081E0DF91CF910895909307
:1023E0007601809375010895E0917501F091760171
:1023F000309721F00190F081E02D099480E008955C
:10240000E0917501F0917601309799F020912201C9
:10241000222359F020919B0227FF07C0DC012C9159
:1024200011962C93119725E02C930280F381E02DD7
:1024300009940895E0917501F0917601309739F093
:1024400022E0DC012C930480F581E02D09940895AD
:1024500020917301309174018217930771F090936A
:10246000740180937301E0917501F09176013097CA
:1024700021F00680F781E02D0994089520917101E3
:10248000309172018217930771F0909372018093DB
:102490007101E0917501F0917601309721F000848F
:1024A000F185E02D0994089585B7806885BF85B7CB
:1024B000806885BF0895089508950C945C1208956E
:1024C0000C945F120E9454120E945B120C945D12D5
:1024D00081E008950E9416200E940B070E94EB20C5
:1024E0000E94870E0E94230D0C9460127F928F929F
:1024F0009F92AF92BF92CF92DF92EF92FF920F9393
:102500001F93CF93DF93CDB7DEB72A970FB6F8941A
:10251000DEBF0FBECDBF0E9456070E946812811118
:1025200011C08FEF89838A831B820E941F208160E4
:10253000782F9D838C8349815A816B818D810E9484
:102540002A134FC038E7832E31E0932E00E010E0CD
:10255000702E802F0E9401076C01F401A190B190B0
:102560004F01A826B926A114B10431F40F5F1F4F03
:102570000530110569F7D5CF80911A0281FD0E94BF
:102580000A0790E0EE24E394F12C97012A213B21E5
:10259000232B09F19E837F82CE20DF2091E0CD287E
:1025A00009F490E098870E941F208160782F9A8715
:1025B00089874E815F8168858A850E942A13000F72
:1025C000111FF801E858FE4F80819181E826F92615
:1025D000F182E08206C09F5FEE0CFF1C9F30A9F6DF
:1025E000C5CF0E94610D0E94CE0F0E949F231091C3
:1025F00077010E94F4111817C9F00E94F41180931A
:1026000077012A960FB6F894DEBF0FBECDBFDF91DB
:10261000CF911F910F91FF90EF90DF90CF90BF90DF
:10262000AF909F908F907F900C9496032A960FB650
:10263000F894DEBF0FBECDBFDF91CF911F910F91F8
:10264000FF90EF90DF90CF90BF90AF909F908F90D2
:102650007F900895CF93DF93CDB7DEB72B970FB65A
:10266000F894DEBF0FBECDBF4F83588769877A8746
:102670008B87DE01119686E0FD0111928A95E9F7BC
:1026800085E0FE01379601900D928A95E1F7498128
:102690005A816B817C818D819E810E94771A2B9655
:1026A0000FB6F894DEBF0FBECDBFDF91CF91089576
:1026B000FC01808191810E94431D0895882309F4C3
:1026C0001AC18238C1F40E94F41181FD14C169E37A
:1026D00080911001909111010E94511F0E94CE1D06
:1026E0002FEF81EE94E0215080409040E1F700C050
:1026F000000069E319C08338F9F40E94F41180FDE9
:10270000FAC063E580911001909111010E94511F60
:102710000E94CE1D2FEF81EE94E02150804090402A
:10272000E1F700C0000063E5809110019091110174
:102730000E945C1F0C94CE1D8438C1F40E94F411D9
:1027400082FDD9C067E480911001909111010E942F
:10275000511F0E94CE1D2FEF81EE94E0215080404A
:102760009040E1F700C0000067E4DECF9CEF980FD7
:10277000913A40F4682F80911001909111010E94CC
:10278000511FD8CF90E2980F983050F4877091E0A5
:1027900001C0990F8A95EAF7892F0E94851DCACF3B
:1027A0009BE5980F933070F4853A29F0863A31F022
:1027B00083E890E005C081E890E002C082E890E004
:1027C0000C94281298E5980F973108F08EC0883A3B
:1027D00009F445C0893A09F445C08A3A09F445C06C
:1027E0008B3A09F445C08C3A09F445C08B3B09F497
:1027F00045C08C3B09F445C08D3A09F445C0803B87
:1028000009F445C08E3A09F445C08F3A09F445C031
:10281000813B09F445C0823B09F445C0833B09F480
:1028200045C0843B09F445C0853B09F445C0863B5F
:1028300009F445C0873B09F445C0883B09F445C00D
:10284000893B09F445C08D3B09F445C08E3B09F432
:1028500045C08A3B09F445C080E090E044C082EE68
:1028600090E041C089EE90E03EC08AEE90E03BC02F
:1028700085EB90E038C086EB90E035C083EB90E0CC
:1028800032C084EB90E02FC087EB90E02CC08CEC42
:1028900090E029C08DEC90E026C083E891E023C051
:1028A0008AE891E020C082E991E01DC084E991E0CE
:1028B0001AC081E292E017C083E292E014C084E281
:1028C00092E011C085E292E00EC086E292E00BC079
:1028D00087E292E008C08FE690E005C080E790E0D4
:1028E00002C08AE292E00C943E12803F20F00E94E7
:1028F000A7220C9494230895882309F464C0823895
:1029000079F40E94F41181FF5EC069E380911001A7
:10291000909111010E94511F0E94CE1D69E310C0C9
:102920008338B1F40E94F41180FF4DC063E58091BB
:102930001001909111010E94511F0E94CE1D63E56C
:1029400080911001909111010E945C1F0C94CE1D8A
:10295000843879F40E94F41182FF35C067E48091D5
:102960001001909111010E94511F0E94CE1D67E439
:10297000E7CF9CEF980F913A10F4682FE1CF90E2E7
:10298000980F983050F4877091E001C0990F8A95A4
:10299000EAF7892F0E948B1DD9CF9BE5980F9330C2
:1029A00020F480E090E00C94281298E5980F97317D
:1029B00020F480E090E00C943E12803F20F00E94D2
:1029C0000F230C9494230895CF93C82F0E945E1375
:1029D000C93349F42FEF87EE93E0215080409040B7
:1029E000E1F700C000008C2FCF910C947C14882359
:1029F00021F00E94851D0C94CE1D0895882321F09E
:102A00000E948B1D0C94CE1D0895BF92CF92DF9231
:102A1000EF92FF920F931F93CF93DF937C01062FCA
:102A2000C72FFC01158112951F70D281D1110E9410
:102A3000A21D0E947B1D882379F0DD2369F080E2CE
:102A4000800F883048F082E00E94191E0E947B1D92
:102A500091E0B82EB92601C0B12CCC2EC2948FE0E3
:102A6000C822D12CF601E659FF4F0C94C52B8C2FB0
:102A7000807FCF70882311F0C295C07FDD2399F04D
:102A8000CC2309F4CFC180E2800F883010F001110F
:102A900004C08C2F0E94851D03C08C2F0E94951DA1
:102AA0000E94CE1DBFC1802F0E947C14CC2309F44C
:102AB00002C280E2800F883010F0011104C08C2F18
:102AC0000E948B1D03C08C2F0E949B1D0E94CE1D57
:102AD000F2C18C2F807FCF70803211F0C295C07F01
:102AE000002319F00130C9F022C0DD2371F0112359
:102AF00041F0113031F40E94B51D8C2B0E94BB1D9A
:102B0000DAC10E94B51D8C2B1DC0112319F01130A4
:102B100009F4D1C10E94C41D25C0DD2321F0163067
:102B200008F0C9C10EC0153008F0C5C11BC0DD23B7
:102B300061F0112331F0F701858180FF73C18F703F
:102B400085838C2F0E94F714B6C1112359F00933E5
:102B500009F079C1FFEF27EE83E0F150204080407B
:102B6000E1F76FC18C2F0E94FE14A5C18C2F8695B2
:102B70008695837090E0009719F0019761F09BC1F2
:102B8000DD2321F0802F9C2F937002C080E090E025
:102B90000E9428129BC1DD2321F0802F9C2F93706F
:102BA00002C080E090E00E943E1290C1DD23F9F067
:102BB000053F51F0063F71F0043FA9F48091950262
:102BC0009091960281600BC080919502909196023F
:102BD000826005C0809195029091960284609093E6
:102BE000960280939502802F0E94A7221EC0053F67
:102BF00051F0063F71F0043FA9F480919502909145
:102C000096028E7F0BC080919502909196028D7FE7
:102C100005C080919502909196028B7F90939602C9
:102C200080939502802F0E940F230E9494234EC10F
:102C30008C2F837009F049C0D11144C1402F4295B7
:102C400046954770440F440F602F6F70862F90E0B9
:102C5000A0E0B0E0042E04C0880F991FAA1FBB1F7C
:102C60000A94D2F704FF10C00FE010E020E030E03B
:102C700004C0000F111F221F331F4A95D2F7009581
:102C800010952095309503C000E010E09801C6959E
:102C9000C695C370D0E0BC01CD01602B712B822B97
:102CA000932BC230D10559F0C330D10559F021978B
:102CB00019F00E94BC1B06C10E94AA1B03C10E94FE
:102CC000CE1B00C10E94A81BFDC0DD2319F08C2F74
:102CD000817001C08695882309F4F4C0402F429585
:102CE00046954770440F440F602F6F70862F90E019
:102CF000A0E0B0E0042E04C0880F991FAA1FBB1FDC
:102D00000A94D2F704FF10C00FE010E020E030E09A
:102D100004C0000F111F221F331F4A95D2F70095E0
:102D200010952095309503C000E010E09801C695FD
:102D3000C695C370D0E0BC01CD01602B712B822BF6
:102D4000932BC230D10559F0C330D10559F02197EA
:102D500019F00E94821CB6C00E94701CB3C00E9471
:102D6000941CB0C00E94E31BADC0CF70DD2339F0CE
:102D70008C2F0E94091C802F0E94F714A3C0802F63
:102D80000E94FE148C2F0E942A1C9CC0023F01F15D
:102D900028F4003F41F0013FA1F040C0033FF9F0AB
:102DA000043F39F13BC0DD2341F0153008F083C00A
:102DB0008C2F8F710E944F1C7EC0163008F07BC094
:102DC000F7CFDD2339F08C2F8F710E94091C73C05F
:102DD000DD23C9F38C2F8F710E942A1C6CC0DD2368
:102DE00029F08C2F8F710E94F41B65C00E94EF1B8D
:102DF00062C0DD2349F0CF718C2F0E94091C63E073
:102E00008C2F0E94041E57C081E00E94191E1230B0
:102E100008F451C082E00E94191E4DC0DD2331F03C
:102E2000112389F2802F0E945E1345C0112391F275
:102E3000093349F49FEFE7EEF3E09150E040F040B2
:102E4000E1F700C00000802F0E947C1434C04C2F9A
:102E50004F70602FC7010E9419040E941B1B36C0CF
:102E6000D11134C0CF70D0E0C230D10599F03CF41C
:102E7000209769F02197F9F40E94CB0E27C0C43047
:102E8000D10571F054F02597B1F480E00AC00E949A
:102E9000A80E1CC00E94120F19C00E94190F16C064
:102EA00085E00E945B0F12C04C2F4F70602FC7014E
:102EB0000E941C040BC028E0C21AD10884E0C81686
:102EC000D10420F40E94F4110E949603BB20D1F09B
:102ED0000E94771D80FD16C0F70112820E94711DAD
:102EE0000E94091CC7010E948C170E94711DDF916E
:102EF000CF911F910F91FF90EF90DF90CF90BF90F7
:102F00000C942A1CDF91CF911F910F91FF90EF90AD
:102F1000DF90CF90BF9008950F931F93CF93DF93CF
:102F2000EC01888199812B813C81232BB9F09F3F53
:102F300011F48F3F99F0CE010E94AF03882371F006
:102F4000688179818A810E944E1D8C010E94A61C95
:102F50000E94A71BB801CE010E940515DF91CF91F9
:102F60001F910F9108950E94A21D0E94B21D0E9400
:102F7000CE1D0E943A240E94942380E090E00E949B
:102F8000281280E090E00C943E1280911001909104
:102F900011010E94671F0C94B3170E94921D0C949C
:102FA000C517E92FE295EF70F0E03297EE30F105AA
:102FB000B0F4E658FF4F0C94C52B803F91F018F405
:102FC000883E68F40EC0843F51F40BC0883E48F040
:102FD000813F29F406C093FB882780F9089580E09B
:102FE000089581E008950E94431D0E94D11708951D
:102FF000CF93DF9300D000D01F92CDB7DEB70F90F4
:103000000F900F900F900F90DF91CF910895CF9375
:10301000DF9300D000D000D0CDB7DEB726960FB634
:10302000F894DEBF0FBECDBFDF91CF9108951F93FF
:10303000CF93DF93C091830116E080918401C8177C
:1030400099F0D0E01C9FF0011D9FF00D1124EB576B
:10305000FE4F4081518162817381848195810E94FC
:1030600007182196C770E9CFDF91CF911F9108957E
:103070004091B5015091B6016091B7017091B801CE
:103080008091B9019091BA010C9407188091BA010E
:1030900082958F7009F054C08091B701882309F49C
:1030A0004FC080918301A09184016091B50170911E
:1030B000B6014091B8015091B901B6E08A1709F400
:1030C0003FC090E041155105C1F17F3F11F46F3FC2
:1030D000A1F1B89FF001B99FF00D1124EB57FE4FFD
:1030E000218172132AC02081621327C022812111FD
:1030F00024C0238134812417350710F4215031096D
:10310000241B350B283C3105C0F42091BA012F70E7
:1031100020612093BA0126E0289FF001299FF00D3D
:103120001124E657FE4F80818F708061808385EB8C
:1031300091E00E948C170C94171801968770BECFEF
:103140000895CF92DF92EF92FF920F931F93CF9348
:10315000DF93CDB7DEB762970FB6F894DEBF0FBE30
:10316000CDBF8C0185E0F801DE011D9601900D9226
:103170008A95E1F7D8014C9111965C9111971296BE
:103180006C9112971396CD90DC9014973091B50105
:103190007091B6018091B8019091B901009709F43E
:1031A0006BC17F3F19F43F3F09F466C1E090B7015E
:1031B000EE2009F4C0C02091BA01C816D90628F043
:1031C000F601E81BF90BCF0104C0809590958C0D9A
:1031D0009D1DFF24F394883C910578F0F12C207F0D
:1031E00009F0C6C07C2DD98AC88A89890E94F8173F
:1031F00085EB91E00E948C17B1C0822F807F09F08F
:1032000046C0751314C0341312C0611110C02F7062
:1032100020612093BA010E94381885EB91E00E944A
:103220008C178091BA01D80115968C932EC0CD28A9
:1032300019F15F3F11F44F3FF9F0F62E61111CC0F8
:10324000809183012091840136E0821709F45AC0ED
:1032500090E0389FF001399FF00D1124EB57FE4F9D
:103260007181571306C07081471303C072817111B9
:1032700003C001968770E9CFF62E662309F427C1B3
:103280008091BA0181608093BA01F12C20C175133D
:1032900008C0341306C0611104C08091BA01D8017E
:1032A000C3C04D875E878D859E856A8B0E94F3170C
:1032B0006A898823E1F16623D1F12091BA01822F36
:1032C00082958F7090E0029774F08091B501909193
:1032D000B60198878F831986DB86CA862C87CE0134
:1032E00007960E948C1786E0F801A5EBB1E00190EB
:1032F0000D928A95E1F70E9446180E943818FF2423
:10330000F394E5C04D875E878D859E850E94431DA1
:10331000292F22952F7030E0223031050CF0CBC0E0
:103320009F7009F0C5C0805E883008F4D0C0C80125
:103330000E948C17E4CFC816D90608F453C0F601D2
:10334000E81BF90BCF01883C910508F450C0F12C23
:103350007C2DD98AC88A89890E94F817E5EBF1E0AB
:1033600086E0DF011D928A95E9F70E943818AFC008
:10337000751314C0341312C0611110C08091BA01CA
:10338000F8018583C8010E948C1786E0E5EBF1E027
:10339000DF011D928A95E9F7FE2C99C04D875E8763
:1033A0008D859E856A8B0E94F3176A89882309F4AC
:1033B000BECF662309F4BBCF2091BA01822F82953C
:1033C0008F7090E002970CF48ECF8091B5019091B0
:1033D000B6019A8389831B82DD82CC822E83CE0143
:1033E00001967FCF809590958C0D9D1DACCFF62ECC
:1033F000662309F49CCF75132EC034132CC0209182
:10340000BA0120FD1FC0822F82958F70D9F0D8019C
:1034100015962C9315978F3049F08F5F982F9295C2
:10342000907F822F8F70892B15968C93C8010E94F4
:103430008C1786E0F801A5EBB1E001900D928A951A
:10344000E1F793CF86E0F801A5EBB1E001900D9292
:103450008A95E1F73CC04D875E878D859E850E94E9
:10346000F317811140CF8091BA0181608093BA0136
:10347000C8010E948C172BC0662309F458CF4D87D2
:103480005E878D859E850E94F317F82E882309F4A8
:103490004ECF86E0F801A5EBB1E001900D928A9540
:1034A000E1F785EB91E00E9458130E9446185DCF2A
:1034B000811139CF0CC0243031050CF038CF9F700A
:1034C00009F431CFF8019581907F09F02CCF8F2D31
:1034D00062960FB6F894DEBF0FBECDBFDF91CF91DD
:1034E0001F910F91FF90EF90DF90CF9008951F9361
:1034F000CF93DF93CDB7DEB72C970FB6F894DEBF2E
:103500000FBECDBF4F83588769877A878B879C878B
:10351000CE0107960E94A118882369F08F819885B3
:103520002A853B85232BF1F19F3F09F063C08F3F34
:1035300009F060C037C086E0FE013796DE011196C3
:1035400001900D928A95E1F76F817885EA85FB8578
:10355000309741F17F3F11F46F3F21F120918401B9
:1035600030E0C9010196877099274091830150E0AE
:103570008417950709F447C069837A83FD83EC8338
:1035800096E0929FD001939FB00D1124AB57BE4F90
:10359000FE01319601900D929A95E1F78093840196
:1035A0000E94171816E08091830190918401891779
:1035B000C1F1189FC00111248B579E4F0E94A11882
:1035C000882379F1E09183011E9FF0011124EB57CC
:1035D000FE4F4081518162817381848195810E9477
:1035E00007188091830190E0019687709927809356
:1035F0008301D9CF4F81588569857A858B859C85D4
:103600000E940718CFCF0E94CD171092840110920C
:103610008301E5EBF1E086E0DF011D928A95E9F791
:10362000C1CF2C960FB6F894DEBF0FBECDBFDF9191
:10363000CF911F910895EF92FF920F931F93CF9315
:10364000DF938C01892B09F46CC0F12CEE24E394F8
:10365000E8012196F8018491843740F4843008F021
:1036600051C0813081F0823019F15BC0853709F497
:1036700044C0A8F19CE7980F903708F052C08F77AC
:103680000E947C1441C00E5F1F4FFE01C49180E276
:103690008C0F883048F4C7708E2D01C0880FCA95F2
:1036A000EAF70E94A51D14C08C2F0E945E132DC046
:1036B0000E5F1F4FFE01C49180E28C0F883058F4DA
:1036C000C7708E2D01C0880FCA95EAF70E94AB1D06
:1036D0000E94CE1D1AC08C2F0E947C1416C00E5F53
:1036E0001F4FFE01C491CC2381F08FE99FE0019729
:1036F000F1F700C00000C150F6CF0E5F1F4FFE0172
:10370000F49003C00E945E138E018F2D882309F46C
:103710009FCFEFE9FFE03197F1F700C00000815043
:10372000F5CFDF91CF911F910F91FF90EF9008950A
:1037300008950C94981B0E94991B6093F10170935B
:10374000F2018093F3019093F4010C94B317089560
:103750000C949B1B0F931F930091F1011091F201A8
:103760002091F3013091F401602B712B822B932B6C
:103770001F910F910C949B1B0F931F930091F101CC
:103780001091F2012091F3013091F4016023712333
:10379000822393231F910F910C949B1B0F931F93D4
:1037A0000091F1011091F2012091F3013091F401A7
:1037B00060277127822793271F910F910C949B1BE1
:1037C00008950C94E01B0E94E11B6093ED0170933F
:1037D000EE018093EF019093F0010C94B31760E039
:1037E00070E0CB010C94E31B0F931F9341E050E07A
:1037F00060E070E08A019B0104C0000F111F221FCE
:10380000331F8A95D2F7C901B8011F910F910C940B
:10381000E31B0F931F9341E050E060E070E004C0B1
:10382000440F551F661F771F8A95D2F78091ED01CF
:103830009091EE01A091EF01B091F0018A019B01FE
:10384000082B192B2A2B3B2BC901B8011F910F9173
:103850000C94E31B0F931F9341E050E060E070E095
:1038600004C0440F551F661F771F8A95D2F74095F5
:103870005095609570958091ED019091EE01A09129
:10388000EF01B091F0018A019B01082319232A233B
:103890003B23C901B8011F910F910C94E31B0F93B7
:1038A0001F9341E050E060E070E004C0440F551FFA
:1038B000661F771F8A95D2F78091ED019091EE01F6
:1038C000A091EF01B091F0018A019B01082719270F
:1038D0002A273B27C901B8011F910F910C94E31BC4
:1038E0000F931F930091ED011091EE012091EF01D4
:1038F0003091F001602B712B822B932B1F910F9134
:103900000C94E31B0F931F930091ED011091EE01B6
:103910002091EF013091F0016023712382239323E2
:103920001F910F910C94E31B0F931F930091ED01D6
:103930001091EE012091EF013091F0016027712785
:10394000822793271F910F910C94E31B08952FE07A
:10395000929F800D1124A82FA695A695A6958770F5
:1039600051E001C0550F8A95EAF785E0A89FD00184
:10397000112420E030E070E0F901EA0FFB1FE5546C
:10398000FE4F4081CB01022E02C0969587950A9486
:10399000E2F7817099278195842785238427808386
:1039A0002F5F3F4F2530310539F708952FE0929F63
:1039B000800D1124682F669566956695982F9770EF
:1039C00085E0689FB001112440E050E080E0FA01FA
:1039D000E60FF71FE554FE4F208130E0092E02C0AC
:1039E000369527950A94E2F721703327042E01C0FB
:1039F000220F0A94EAF7822B4F5F5F4F4530510543
:103A000031F70895BF92CF92DF92EF92FF920F931A
:103A10001F93CF93DF938C01C090F101D090F201FE
:103A2000E090F301F090F4018091ED019091EE01AE
:103A3000A091EF01B091F001C82AD92AEA2AFB2A05
:103A4000CFE1D0E0D701C6010C2E04C0B695A795F2
:103A5000979587950A94D2F780FF07C0BC2EB801CE
:103A60008C2F0E943704019719F4219758F7B12C35
:103A70008B2DDF91CF911F910F91FF90EF90DF90F1
:103A8000CF90BF900895CF93DF93EC010E94021D69
:103A9000BE010E943704DF91CF9108951F93CF9309
:103AA000DF93EB0190918201992321F0CB010E94D9
:103AB000431D13C0882349F0CB010E94021D182F1B
:103AC000682FCE010E94A71C04C0CB010E94D61C07
:103AD000182FBE01812F0E943704DF91CF911F91D3
:103AE00008958091F5018595859585950895809136
:103AF000F501877008959091F501977081E009F4C0
:103B000080E0089580911902089590911902892BFF
:103B100080931902089580959091190289238093CA
:103B20001902089510921902089590911802892B94
:103B300080931802089580959091180289238093AC
:103B40001802089510921802089590911702892B77
:103B5000809317020895809590911702892380938E
:103B6000170208951092170208958091F6010895A2
:103B700008950C94B81D9091F601981721F0809348
:103B8000F6010C94B91D08958091F601882329F05F
:103B90001092F60180E00C94B91D0895E091100197
:103BA000F0911101809119028083E0911001F09150
:103BB0001101908180911802892B8083E09110017E
:103BC000F0911101908180911702892B808380915F
:103BD000F601882381F0E0911001F09111019081AC
:103BE000892B808380911001909111010E94EC1E1D
:103BF00081110E94C41D80911001909111010C94BB
:103C0000001208950C94011E98E0899F90011124E0
:103C1000262B2093F5010E94091C8091F5018595C2
:103C2000859585950C94021E1092F50180E00C9408
:103C3000021E2091F501809582238093F501982F33
:103C4000977079F430E0482F082E000C550B24179C
:103C5000350739F08595859585950E942A1C0C9429
:103C6000141E089580E090E00E94002C21E08C3E1C
:103C70009E4F09F020E0822F089582E090E00C949E
:103C8000F22B682F82E090E00C94062C83E090E009
:103C90000C94F22B682F83E090E00C94062CCF93C9
:103CA00084E090E00E94F22BC82F81E290E00E9415
:103CB000F22B2C2F30E0A901582BCA01CF91089587
:103CC000CF93C92F682F84E090E00E94062C6C2FC0
:103CD00081E290E0CF910C94062C86E090E00C9469
:103CE000F22B682F86E090E00C94062CAB01BC010F
:103CF0008FE090E00C94182CAB01BC0183E190E0C4
:103D00000C94182C60E070E0CB010C947C1E60E0F9
:103D100070E0CB010E94761E0C94821E6CEE7EEF4A
:103D200080E090E00E94242C60E082E090E00E941D
:103D3000062C60E083E090E00E94062C1092F101D6
:103D40001092F2011092F3011092F40160E084E00D
:103D500090E00E94062C60E081E290E00E94062C38
:103D600060E085E090E00E94062C60E086E090E054
:103D70000E94062C6FEF87E090E00E94062C40E046
:103D800050E0BA0188E090E00E94182C60E08DE0DD
:103D900090E00E94062C40E050E0BA0188E190E0FB
:103DA0000E94182C60E087E190E00E94062C40E021
:103DB00050E0BA018CE190E00E94182C60E080E2B3
:103DC00090E00E94062C0C94871E0C948E1E682F87
:103DD0008EE090E00C94062CFC013296809122013A
:103DE000882331F080919B0287FF02C09EE101C0D1
:103DF00096E080E0915028F021912223D9F38F5F43
:103E0000F9CF08959C01FC0132969FEF80E041912B
:103E1000461789F09F3F19F4411101C0982F8F5F19
:103E20008630A9F79F3F39F0F901E90FF11D97FDA1
:103E3000FA95628308950895FC01329608962081D0
:103E4000261301C010823196E817F907C1F70895CB
:103E5000262F2695269526952E3168F4FC01E20F33
:103E6000F11D677021E030E001C0220F6A95EAF78A
:103E70008281282B22830895262F26952695269524
:103E80002E3170F4FC01E20FF11D677021E030E08B
:103E900001C0220F6A95EAF72095828128232283A8
:103EA000089520912201222329F020919B0227FDD1
:103EB0000C94281F0C94021F20912201222329F028
:103EC00020919B0227FD0C943C1F0C941C1F2091F9
:103ED0002201FC013296222331F080919B0287FF60
:103EE00002C08EE101C086E0DF011D928A95E9F7EC
:103EF000089508950C94791F0E947A1F8091A10261
:103F0000843009F43CC010921B0220E488E190E068
:103F10000FB6F894A895809360000FBE20936000C0
:103F200080E00E94720F80E00E9496030E945E0D66
:103F300080911C0281110AC081E080931C02809153
:103F40005F02817080931D020E94910C0E947A1F73
:103F500083B7817F846083BF83B7816083BF789498
:103F6000889583B78E7F83BF0FB6F894A89580910C
:103F70006000886180936000109260000FBE089519
:103F800008950895CF930E94C01F0E9456070E9473
:103F9000C11FC0E08C2F0E940107892B29F4CF5F3D
:103FA000C530C1F780E001C081E0CF910895089548
:103FB0000C94D71F0E94CD170E94870E0E94F41107
:103FC0000E94960310921C0280911D0281110E9492
:103FD000560D0E94A30C0C94D81F1F920F920FB67F
:103FE0000F9211248F939F93AF93BF9380911B02E5
:103FF000811113C08091970290919802A09199022B
:10400000B0919A024196A11DB11D809397029093A1
:104010009802A0939902B0939A02BF91AF919F9199
:104020008F910F900FBE0F901F90189582E084BD66
:1040300093E095BD9AEF97BD80936E0008952FB7DA
:10404000F8948091970290919802A0919902B09172
:104050009A022FBF0895CF92DF92EF92FF920F93B3
:104060001F932FB7F8944091970250919802609156
:10407000990270919A022FBF6A017B01EE24FF24FE
:104080008C0120E030E0C016D106E206F30610F401
:10409000415051099A01281B390BC9011F910F91F9
:1040A000FF90EF90DF90CF90089578941F920F9239
:1040B0000FB60F9211248F939F93AF93BF9380916C
:1040C000970290919802A0919902B0919A0201965C
:1040D000A11DB11D8093970290939802A09399021D
:1040E000B0939A02BF91AF919F918F910F900FBEA5
:1040F0000F901F90189581E08093E00080E28093FC
:10410000D8001092C9008FE19EE40197F1F700C03A
:10411000000087E090EBDC018093AA029093AB0251
:10412000A093AC02B093AD029CE088E10FB6F89486
:10413000A895809360000FBE90936000FFCFAF9270
:10414000BF92CF92DF92EF92FF920F931F93CF9384
:10415000C0E0CC24C394D12CE82EF12C8C2F0E94EB
:1041600001075C0100E010E09601002E02C0220F62
:10417000331F0A94E2F72A213B21232B31F40F5FEE
:104180001F4F0F30110581F70AC0602F7C2F80E090
:104190000E941D04E816F90691F781E004C0CF5F84
:1041A000C530E1F680E0CF911F910F91FF90EF9025
:1041B000DF90CF90BF90AF900895CF93C82F8CE23F
:1041C0000E949F20882321F08C2FCF910C949F2058
:1041D00080E0CF910895CF930E94321E811102C0DA
:1041E0000E94E51EC5E6C15049F00E9456078FE3C4
:1041F0009CE90197F1F700C00000F5CF89E20E9429
:10420000DD20811120C18AE20E94DD2081110E94FF
:10421000E51E85E00E94DD2081110E947B200E9426
:104220003D1E80931A0287E00E94DD208823A9F1B9
:104230008BE10E94DD20882351F080911A0281FBDE
:10424000222720F991E0922790FB81F90EC08EE0A1
:104250000E94DD20882361F080911A0282FB2227D0
:1042600020F991E0922790FB82F980931A0215C001
:1042700080E10E94DD2090911A02882341F093FB97
:10428000222720F981E0822780FB93F904C0892F3F
:10429000809580FB90F990931A0280911A020E94F7
:1042A000411E0E944F1E90939C0280939B0280EEC1
:1042B0000E94DD20882341F080919B02982F9095E9
:1042C00090FB80F980939B0289E30E94DD20882384
:1042D00059F080919B0281FB222720F991E09227DF
:1042E00090FB81F980939B0282EE0E94DD2088235F
:1042F00059F080919B0282FB222720F991E09227BE
:1043000090FB82F980939B0286EE0E94DD20882339
:1043100059F080919B0283FB222720F991E092279C
:1043200090FB83F980939B0283EE0E94DD2088231B
:1043300059F080919B0284FB222720F991E092277B
:1043400090FB84F980939B0285E30E94DD20882303
:1043500059F080919B0285FB222720F991E092275A
:1043600090FB85F980939B0281E30E94DD208823E6
:1043700059F080919B0286FB222720F991E0922739
:1043800090FB86F980939B0281E10E94DD208823C7
:1043900059F080919B0287FB222720F991E0922718
:1043A00090FB87F980939B0280919B0290919C02E5
:1043B0000E94601E87E20E94DD20C82F8EE10E94CD
:1043C000DD208111C2608FE10E94DD208111C46077
:1043D00080E20E94DD208111C86081E20E94DD2020
:1043E0008111C06182E20E94DD208111C06283E2FE
:1043F0000E94DD208111C06484E20E94DD208823B8
:1044000011F0C06802C0CC2329F08C2F0E944A1EF4
:104410006C2F03C00E94461E682F70E080E090E081
:104420000E94A81B8FE00E94DD20882319F081E004
:104430000E94E71E85E10E94DD20882321F080E0B4
:10444000CF910C94E71ECF9108958091210280FFB7
:104450000BC06091150185E0689FB001112475952E
:104460006795759567952BC081FF09C0609115010F
:1044700085E0689FB00111247595679520C082FF83
:1044800007C06091150185E0689FB001112417C035
:10449000909120029923D1F060911401961788F72A
:1044A0002091150185E0289F90011124929FA00181
:1044B000939F500D112470E0CA010E948F2B603829
:1044C000710540F46115710539F002C065E070E0D6
:1044D000862F08958FE7089581E008958091210245
:1044E00080FF08C06091130170E075956795759520
:1044F000679521C081FF06C06091130170E075953A
:10450000679519C082FF04C06091130170E010C06C
:10451000909120029923C1F0609112019617A0F7A3
:1045200080911301899FC001112470E00E948F2B9C
:104530006038710528F46115710521F0862F089502
:104540008FE7089581E0089561E070E0F4CF803F47
:1045500021F40E942522819504C0813F29F40E9404
:104560002522809325020895823F21F40E9425226E
:10457000819504C0833F29F40E9425228093240260
:104580000895893F19F40E946E2205C08A3F31F4D4
:104590000E946E2281958093260208958B3F21F41C
:1045A0000E946E22819504C08C3F29F40E946E22E5
:1045B000809327020895843F21F480912302816033
:1045C00017C0853F21F480912302826011C0863F8D
:1045D00021F48091230284600BC0873F21F48091F5
:1045E0002302886005C0883F31F4809123028061F6
:1045F0008093230208958D3F21F4809121028160F0
:104600000BC08E3F21F480912102826005C08F3F54
:1046100029F4809121028460809321020895803FD3
:1046200039F48091250287FF6CC01092250269C081
:10463000813F29F4809125021816BCF362C0909145
:104640002402823F29F497FF5CC01092240259C0D3
:10465000833F19F41916CCF354C0893F41F480917B
:10466000260218160CF04DC0109226024AC08A3F4E
:1046700029F48091260287FF44C0F6CF8B3F39F49E
:104680008091270287FF3DC0109227023AC08C3FDD
:1046900029F4809127021816BCF333C0843F21F41B
:1046A000809123028E7F17C0853F21F480912302E1
:1046B0008D7F11C0863F21F4809123028B7F0BC038
:1046C000873F21F480912302877F05C0883F31F422
:1046D000809123028F7E8093230213C08D3F21F4AB
:1046E000809121028E7F0BC08E3F21F480912102A8
:1046F0008D7F05C08F3F29F4809121028B7F8093AD
:1047000021028091240281110EC080912502811125
:104710000AC080912602811106C080912702811172
:1047200002C010922002089582E292E00E941A12C2
:104730000E941F2090931F0280931E0208951F93D2
:10474000CF93DF9380911E0290911F020E942B2035
:10475000AC0190912002992321F02091160130E0C4
:1047600006C0209117018AE0289F9001112442176A
:10477000530708F47BC080912402C0912502D09198
:10478000260210912702811107C0C1116BC0D111FF
:1047900069C0111167C06AC09F3F19F09F5F909375
:1047A0002002181624F40E9425228093240280916E
:1047B000240287FF05C00E94252281958093240250
:1047C0001C1624F40E942522809325028091250244
:1047D00087FF05C00E942522819580932502309194
:1047E00024023323E1F0209125022223C1F045EB7E
:1047F0003403C0011124892F990F990B009709F4F4
:1048000081E08093240235EB2303C0011124892F1A
:10481000990F990B009709F481E0809325021D16EA
:1048200024F40E946E22809326028091260287FF44
:1048300005C00E946E22819580932602111624F4F1
:104840000E946E22809327028091270287FF05C075
:104850000E946E22819580932702DF91CF911F9154
:104860000C9494239F3F09F099CFA1CFDF91CF9172
:104870001F910895E2E2F2E086E0DF011D928A9541
:10488000E9F71092200210922102089580914802C7
:1048900008950F931F93CF93DF9300D01F92CDB74E
:1048A000DEB78C010E94B226823011F0843021F5EF
:1048B00084E089831B830A8382E08093E9008FEF81
:1048C0009091E800815095FD06C095ED9A95F1F71D
:1048D00000008111F5CF8091E80085FF0DC040E018
:1048E00050E063E070E0CE0101960E94CF268091F7
:1048F000E8008E778093E8000F900F900F90DF9183
:10490000CF911F910F910895CF93DF9300D01F9205
:10491000CDB7DEB72091A102243031F523E0298301
:10492000805891099B838A8382E08093E9008FEF0E
:104930009091E800815095FD06C095ED9A95F1F7AC
:1049400000008111F5CF8091E80085FF0DC040E0A7
:1049500050E063E070E0CE0101960E94CF26809186
:10496000E8008E778093E8000F900F900F90DF9112
:10497000CF910895CF93DF93EC010E94B22682304D
:1049800011F08430F9F482E08093E9009FEF809188
:10499000E800915085FD06C085ED8A95F1F700008D
:1049A0009111F5CF8091E80085FF0CC040E050E008
:1049B00066E070E0CE010E94CF268091E8008E77FD
:1049C0008093E800DF91CF910895CF93DF93EC01BE
:1049D0000E94B226823011F08430D9F580912201F4
:1049E000882339F080919B0287FF03C060E282E058
:1049F00002C068E081E08093E9008FEF9091E800C9
:104A0000815095FD06C095ED9A95F1F70000811152
:104A1000F5CF8091E80085FF1CC0809122018111B3
:104A200005C040E050E068E070E003C070E040E0A6
:104A300050E0CE010E94CF268091E8008E778093CF
:104A4000E80080E2FE01A8E2B2E001900D928A95B2
:104A5000E1F7DF91CF9108958091A002811109C003
:104A60000E9464280E94C1288091E20084608093A3
:104A7000E20008951092A0020895089508950C94FC
:104A8000DA1F42E061EC81E00E94DE2742E261EC45
:104A900082E00C94DE278091A302833009F460C089
:104AA00030F4813071F0823009F499C008958A3071
:104AB00009F485C08B3009F46BC0893009F0A7C0B8
:104AC00020C08091A202813A09F0A1C08091E80043
:104AD000877F8093E8008091A6029091A702892B9E
:104AE00021F460E288E292E003C060E080E090E0C0
:104AF00070E00E941A278091E8008B778093E8008D
:104B000008958091A202813209F081C08091A602AD
:104B10009091A702029708F07AC08091E800877F01
:104B20008093E8008091E80082FD05C08091A10299
:104B30008111F8CF6CC02091F3008091F20090E0D9
:104B4000922B029729F48091F1008B7F813021F420
:104B50008091F100809348028091E8008B7753C0E8
:104B60008091A202813A09F052C08091A6029091F0
:104B7000A702892B09F04BC08091E800877F8093C2
:104B8000E8008091E80080FFFCCF8091220136C0D0
:104B90008091A2028132D9F58091A6029091A7025C
:104BA000892BA9F58091E800877F8093E8000E9417
:104BB00013288091A402809322010C94CD17809138
:104BC000A202813221F58091E800877F8093E8007E
:104BD0000E9413288091A502809349020895809134
:104BE000A202813AA1F48091E800877F8093E800D7
:104BF0008091E80080FFFCCF809149028093F10012
:104C00008091E8008E778093E8000C941328089533
:104C100084B7877F84BF0FB6F894A8958091600011
:104C2000886180936000109260000FBE90E080E881
:104C30000FB6F89480936100909361000FBE0E94BC
:104C400062120E9464280E94C1288091E200846060
:104C50008093E20078940E94502B0E946A1288E1AF
:104C600091E00E94EF118091A102853069F40E94C9
:104C70007C1F80919F028823B1F30E94C21F88236A
:104C800091F30E94B926EFCF0E947612ECCF0C94DC
:104C90004926292F332723303105C9F064F4213008
:104CA000310581F02230310509F04CC08BE390E0F2
:104CB0002FE834E04BC02132310521F12232310599
:104CC00089F140C082E190E02AEC34E03FC09927AE
:104CD0008130910571F02CF4892BA1F5EBE8F4E01B
:104CE0000DC08230910541F0039761F5E7E6F4E0ED
:104CF00005C0E9E7F4E002C0EDE6F4E0849190E05D
:104D00009F0124C06115710541F061307105D1F436
:104D100089E090E02AEB34E019C089E090E021EAD4
:104D200034E014C06115710541F06130710551F432
:104D300080EC90E02CED34E009C080E490E02CE9B8
:104D400035E004C080E090E020E030E0FA013183FB
:104D5000208308958091A102843011F081E00895AC
:104D600082E0089580914A02811102C00C94AA2623
:104D7000089580E189BD82E189BD09B400FEFDCFBF
:104D80008091D8008F7D8093D8008091E000826070
:104D90008093E0008091E00081FDFCCF0895CF92E8
:104DA000DF92EF92FF920F931F93CF93DF93EC016B
:104DB0008B016A010E943228811133C0C114D104D1
:104DC00039F0F60180819181081B190BC80FD91F9A
:104DD000E12CF12C0115110519F18091E80085FDF8
:104DE00016C08091E8008E778093E800C114D1044A
:104DF00049F0F60180819181E80EF91EF182E0828E
:104E000085E00FC00E943228882321F30AC08991CF
:104E10008093F10001501109FFEFEF1AFF0ADACF7A
:104E200080E0DF91CF911F910F91FF90EF90DF9085
:104E3000CF9008952091A8023091A9022617370734
:104E400048F06115710539F42091E8002E77209320
:104E5000E80001C0B90140E061157105A9F1209198
:104E6000A102222309F443C0253009F442C0209155
:104E7000E80023FD40C02091E80022FD32C02091CF
:104E8000E80020FFE9CF4091F3002091F20030E0EC
:104E9000342BFC01CF016115710559F02830310523
:104EA00040F481918093F100615071092F5F3F4F71
:104EB000F1CF41E02830310509F040E02091E800D1
:104EC0002E772093E800C8CF4111C9CF0AC0809146
:104ED000A102882361F0853061F08091E80083FDB4
:104EE0000AC08091E80082FFF2CF80E0089582E05E
:104EF000089583E0089581E008952091A8023091FB
:104F0000A9022617370748F06115710539F4209179
:104F1000E8002E772093E80001C0B901FC0120E0F1
:104F20006115710591F18091A102882309F440C0B7
:104F3000853009F43FC08091E80083FD3DC0809139
:104F4000E80082FD2FC08091E80080FFE9CF20912A
:104F5000F3008091F20090E0922B6115710559F0F9
:104F60008830910540F424912093F10031966150EE
:104F700071090196F2CF21E0089709F020E08091B5
:104F8000E8008E778093E800CBCF2111CCCF0AC008
:104F90008091A102882361F0853061F08091E80062
:104FA00083FD0AC08091E80082FFF2CF80E008957F
:104FB00082E0089583E0089581E00895982F973066
:104FC00058F59093E900981739F07091EC00209112
:104FD000ED005091F00003C0242F762F50E021FF08
:104FE00019C03091EB003E7F3093EB003091ED0023
:104FF0003D7F3093ED003091EB0031603093EB005A
:105000007093EC002093ED005093F0002091EE009F
:1050100027FF07C09F5FD3CF8F708093E90081E0A7
:10502000089580E008958091A20287FF11C08091C9
:10503000E80082FD05C08091A1028111F8CF11C066
:105040008091E8008B770BC08091A102882349F002
:105050008091E80080FFF8CF8091E8008E77809300
:10506000E80008952091E4003091E50095E6409134
:10507000EC00842F817040FF22C08091E80080FD09
:105080001CC08091A102882391F0853091F080911D
:10509000EB0085FD10C04091E4005091E5004217FF
:1050A000530729F39A01915011F784E0089582E0A3
:1050B000089583E0089581E0089580E00895409187
:1050C000E80042FFDECF08950E94D2280E94DA282D
:1050D000E0EEF0E0808181608083E8EDF0E08081A7
:1050E0008F77808319BCA7EDB0E08C918E7F8C9375
:1050F00080818F7E80831092A00208950F931F936A
:10510000CF93DF930E94D2280E94DA28C8EDD0E026
:1051100088818F77888388818068888388818F7D64
:10512000888319BC1092A10210929D0210929F02D6
:1051300010929E0200EE10E0F80180818B7F808348
:1051400088818160888342E060E080E00E94DE2701
:10515000E1EEF0E080818E7F8083E2EEF0E08081FE
:1051600081608083808188608083F80180818E7F68
:105170008083888180618883DF91CF911F910F9117
:105180000895E8EDF0E080818F7E8083E7EDF0E028
:1051900080818160808384E082BF81E08093A0026F
:1051A0000C947E28E8EDF0E080818E7F8083109261
:1051B000E20008951092DA001092E10008951F9223
:1051C0000F920FB60F9211242F933F934F935F933B
:1051D0006F937F938F939F93AF93BF93EF93FF93BF
:1051E0008091E10082FF0BC08091E20082FF07C046
:1051F0008091E1008B7F8093E1000E944F2B809192
:10520000DA0080FF1FC08091D80080FF1BC0809112
:10521000DA008E7F8093DA008091D90080FF0DC084
:1052200080E189BD82E189BD09B400FEFDCF81E046
:105230008093A1020E942C2505C019BC1092A102E6
:105240000E943A258091E10080FF19C08091E20020
:1052500080FF15C08091E2008E7F8093E2008091F4
:10526000E20080618093E2008091D80080628093A8
:10527000D80019BC85E08093A1020E943E25809150
:10528000E10084FF30C08091E20084FF2CC080E107
:1052900089BD82E189BD09B400FEFDCF8091D800AF
:1052A0008F7D8093D8008091E1008F7E8093E10014
:1052B0008091E2008F7E8093E2008091E200816025
:1052C0008093E20080919D02882311F084E007C062
:1052D0008091E30087FD02C081E001C083E08093FC
:1052E000A1020E943F258091E10083FF29C08091A7
:1052F000E20083FF25C08091E100877F8093E10079
:1053000082E08093A10210929D028091E1008E7F45
:105310008093E1008091E2008E7F8093E200809193
:10532000E20080618093E20042E060E080E00E9461
:10533000DE278091F00088608093F0000E943D2578
:10534000FF91EF91BF91AF919F918F917F916F915D
:105350005F914F913F912F910F900FBE0F901F9033
:1053600018951F920F920FB60F9211242F933F930F
:105370004F935F936F937F938F939F93AF93BF935D
:10538000CF93DF93EF93FF93C091E900CF708091AB
:10539000EC00D82FD17080FDD0E81092E900809108
:1053A000F000877F8093F00078940E94F529109296
:1053B000E9008091F00088608093F000CD2BCF70E1
:1053C000C093E900FF91EF91DF91CF91BF91AF9131
:1053D0009F918F917F916F915F914F913F912F910D
:1053E0000F900FBE0F901F9018951F93CF93DF93D0
:1053F000CDB7DEB7AA970FB6F894DEBF0FBECDBF0C
:10540000E2EAF2E088E08E0F9091F10091938E1322
:10541000FBCF0E944B258091E80083FF28C180913B
:10542000A2029091A302492F50E04A30510508F0A2
:105430001EC1FA01E857FF4F0C94C52B803821F0AC
:10544000823809F014C108C080919E0290919F0299
:10545000992389F082600FC08091A6028F708730F7
:1054600008F005C18093E9008091EB0085FB882757
:1054700080F91092E9009091E800977F9093E800FE
:105480008093F1001092F100D0C0282F2D7F09F0F9
:10549000EEC0882319F0823061F0E9C08091A40247
:1054A000813009F0E4C0933009F080E080939F02DE
:1054B0002EC08091A40281112AC08091A6028F7013
:1054C0002FEF280F263008F0D2C08093E9002091FA
:1054D000EB0020FF1CC0933021F48091EB00806230
:1054E00014C09091EB0090619093EB0021E030E0CC
:1054F000A90102C0440F551F8A95E2F74093EA00C4
:105500001092EA008091EB0088608093EB0010928B
:10551000E9008091E800877F8093E8000E941328CB
:10552000A6C08111A4C01091A4021F778091E3004E
:105530008078812B8093E3008091E800877F8093BF
:10554000E8000E9413288091E80080FFFCCF809142
:10555000E30080688093E300111102C082E001C083
:1055600083E08093A10283C08058823008F07FC01E
:105570008091A4029091A5028C3D53E0950779F5A6
:1055800083E08A838AE289834FB7F894DE01139619
:1055900020E03EE051E2E32FF0E050935700E49129
:1055A00020FF03C0E295EF703F5FEF708E2F90E019
:1055B000EA3010F0C79601C0C0968D939D932F5F7F
:1055C000243149F74FBF8091E800877F8093E8003E
:1055D0006AE270E0CE0101960E941A2715C0609120
:1055E000A6027091A702AE014F5F5F4F0E9447264F
:1055F000BC01892BE1F19091E800977F9093E8003E
:1056000089819A810E947D278091E8008B77809321
:10561000E8002DC0803859F58091E800877F80939D
:10562000E80080919D028093F1008091E8008E77E0
:1056300073CF81111CC09091A4029230C0F480916C
:10564000E800877F8093E80090939D020E941328D2
:1056500080919D02811106C08091E30087FD02C008
:1056600081E001C084E08093A1020E9441258091E5
:10567000E80083FF0AC08091E800877F8093E800FC
:105680008091EB0080628093EB00AA960FB6F894AD
:10569000DEBF0FBECDBFDF91CF911F91089508955A
:1056A000CF938091A1028823A1F0C091E900CF702F
:1056B0009091EC00892F817090FD80E8C82B1092AA
:1056C000E9008091E80083FD0E94F529CF70C09326
:1056D000E900CF910895DB018F939F930E94DA2B0D
:1056E000BF91AF91A29F800D911DA39F900DB29F7E
:1056F000900D11240895AA1BBB1B51E107C0AA1FDE
:10570000BB1FA617B70710F0A61BB70B881F991F62
:105710005A95A9F780959095BC01CD01089597FB06
:10572000072E16F4009407D077FD09D00E947B2B3A
:1057300007FC05D03EF4909581959F4F0895709594
:1057400061957F4F0895A1E21A2EAA1BBB1BFD0194
:105750000DC0AA1FBB1FEE1FFF1FA217B307E40750
:10576000F50720F0A21BB30BE40BF50B661F771FA8
:10577000881F991F1A9469F7609570958095909588
:105780009B01AC01BD01CF010895EE0FFF1F0590F5
:10579000F491E02D0994A29FB001B39FC001A39F93
:1057A000700D811D1124911DB29F700D811D11245A
:1057B000911D08950E94CB2BA59F900DB49F900D35
:1057C000A49F800D911D11240895FC01415050406B
:1057D00030F001900616D1F73197CF010895882750
:1057E00099270895F999FECF92BD81BDF89A99271E
:1057F00080B50895A6E1B0E044E050E00C942C2C74
:10580000A8E1B0E042E050E00C942C2C262FF9994E
:10581000FECF92BD81BDF89A019700B4021639F00F
:105820001FBA20BD0FB6F894FA9AF99A0FBE0895E0
:105830000396272F0E94072C0E94062C252F0E94DA
:10584000072C242F0C94072C0196272F0E94072C3D
:105850000C94062CDC01CB01FC01F999FECF06C0AB
:10586000F2BDE1BDF89A319600B40D92415050401E
:08587000B8F70895F894FFCF8A
:10587800010210101001191A1B1C1D1E1F202122C5
:10588800F7012808140A321E4624E524BA24842481
:10589800492401F0F1C6676637943130353497965C
:1058A80033F49091929395000102020202060606D3
:1058B8000909090909090F0F0F0F0F0F15151518F9
:0C58C80019191919191919191919232493
:00000001FF
