:100000000C94EE020C9435030C9435030C943503D8
:100010000C9435030C9435030C9435030C94350380
:100020000C9435030C9435030C9493270C94652899
:100030000C94C71E0C9435030C9435030C943503B3
:100040000C9435030C9435030C9435030C94350350
:100050000C9435030C942F1F0C9435030C9435032A
:100060000C9435030C9435030C9435030C94350330
:100070000C9435030C9435030C9435030C94350320
:100080000C9435030C9435030C9435030C94350310
:100090000C9435030C9435030C9435030C94350300
:1000A0000C9435030C9435030C943503630D660DE5
:1000B0006E0D730D780D7D0D820D870D8C0D910DDC
:1000C000960D9B0D9D0DA00DA30DA60DA90DAC0DBC
:1000D000AE0DB30D11141114431443149014B01445
:1000E00035163516F2148F15A015A01501160A162F
:1000F00035162E16B716B716C916C916C016C91664
:10010000C916C916B716B716C516C916C916C51623
:10011000D228F928EB29F928EB2945296829EB2968
:10012000BE29CD29165C1E001F00200021002200E0
:10013000230024002500260027002D002E000000AB
:100140002A002B00000014001A00080015001700F8
:100150001C0018000C00120013002F0030003100AA
:10016000E000000004001600070009000A000B0070
:100170000D000E000F003300340028000000E100E5
:1001800000001D001B0006001900050011001000F2
:100190003600370038000000E5000000E000E20013
:1001A0000000E300000000002C0000000000000040
:1001B000E700E60000000151E40035003A003B0092
:1001C0003C003D003E003F00400041004200A800CE
:1001D000AA00A90000004C00C25C0000010052000F
:1001E0000100010001000100010001000100AE005A
:1001F000BC00BB00010001000000500051004F0096
:1002000001000100010001000100010001000100E6
:1002100001000000010000000100010001000100D8
:1002200001000100010001000100010000000100C7
:1002300000000100010000000100000000000100BA
:1002400000000000000001000100000001000100AA
:1002500000047F3F1F643214643214783C1E1E1465
:100260000A052223252628292A2C2D2F3032333522
:1002700036383A3B3D3E4042434547494A4C4E5052
:1002800051535557595A5C5E6062646668696B6D7C
:100290006F71737577797B7D7F81838587898A8C80
:1002A0008E90929496989A9C9E9FA1A3A5A7A8AA87
:1002B000ACAEAFB1B3B4B6B8B9BBBCBEBFC1C2C3BC
:1002C000C5C6C7C9CACBCCCDCED0D1D2D2D3D4D556
:1002D000D6D7D7D8D9D9DADADBDBDBDCDCDCDCDC7F
:1002E000DDDDDDDDDCDCDCDCDCDBDBDBDADAD9D957
:1002F000D8D7D7D6D5D4D3D2D2D1D0CECDCCCBCAE5
:10030000C9C7C6C5C3C2C1BFBEBCBBB9B8B6B4B30A
:10031000B1AFAEACAAA8A7A5A3A19F9E9C9A9896A0
:100320009492908E8C8A89878583817F7D7B797773
:100330007573716F6D6B6968666462605E5C5A5953
:1003400057555351504E4C4A4947454342403E3D14
:100350003B3A3836353332302F2D2C2A29282625A2
:100360002322FFAA7F554000010101010101010183
:100370000102020202020202020203030303030358
:100380000303040404040404040505050505060626
:1003900006060607070707070808080809090909E4
:1003A0000A0A0A0B0B0B0C0C0C0D0D0D0E0E0E0F8A
:1003B0000F0F10101111111212131314141515161A
:1003C000161717181819191A1A1B1B1C1D1D1E1E8B
:1003D0001F202021222223242425262627282929DC
:1003E0002A2B2C2D2D2E2F30313232333435363707
:1003F00038393A3B3C3D3E3F404142434445464705
:1004000048494A4C4D4E4F50515354555658595ADD
:100410005B5D5E5F616264656668696B6C6D6F7081
:1004200072737577787A7B7D7E8082838587888AF0
:100430008C8E8F91939596989A9C9EA0A2A3A5A727
:10044000A9ABADAFB1B3B5B7BABCBEC0C2C4C6C923
:10045000CBCDCFD1D4D6D8DBDDDFE2E4E7E9EBEEDC
:10046000F0F3F5F8FAFDFF0403300000000A03443E
:10047000005A0036003000000010034B00420044D8
:1004800000460061006E00730000000403090409C7
:10049000023B00020100A0FA09040000010301016F
:1004A0000009211101000122400007058103080015
:1004B0000A090401000103000000092111010001E3
:1004C00022C0000705820320000A1201100100006B
:1004D00000085A44602201000102030105010902DB
:1004E000A10185020901A1000509190129051500CD
:1004F00025019505750181029501750381010501AD
:10050000093009311581257F950275088106093862
:100510001581257F950175088106050C0A3802159D
:1005200081257F950175088106C0C005010980A15C
:100530000185031A81002A83001601002603009515
:100540000175108100C0050C0901A10185041A0183
:10055000002A9C02160100269C029501751081005C
:10056000C005010906A1018505050719E029E71560
:100570000025019508750181020507190029EF156D
:1005800000250195F07501810205081901290595DD
:100590000575019102950175039101C005010906D8
:1005A000A101050719E029E7150025019508750146
:1005B00081029501750881010507190029FF1500C1
:1005C00026FF009506750881000508190129059583
:1005D0000575019102950175039101C011241FBE9B
:1005E000CFEFDAE0DEBFCDBF04B603FE27C08091B7
:1005F0000C0390910D03A0910E03B0910F0387306F
:10060000904BA740B04BD1F410920C0310920D0305
:1006100010920E0310920F0314BE84B7877F84BF1D
:100620000FB6F894A895809160008861809360006F
:10063000109260000FBEE0E0F8E3099511E0A0E041
:10064000B1E0E0EEF5E502C005900D92AE3BB107DA
:10065000D9F723E0AEEBB1E001C01D92AC30B20798
:10066000E1F70E94BC240C94EE2A0C9400000C9438
:100670003606229A2A9A08950E9435060C94390368
:1006800081FF02C02A9801C02A9A0C94910381E04C
:10069000089581E008950C9449031F93CF93DF934D
:1006A00000D000D01F92CDB7DEB749835A83209186
:1006B000E40189819A81211112C0662349F00E94C8
:1006C000DC1B182F682F89819A810E94811B03C02F
:1006D0000E94B01B182F69817A81812F04C00E946B
:1006E000DC1B69817A810F900F900F900F900F9013
:1006F000DF91CF911F910C94F503FC014081518152
:100700006281738184810C944D030E940C1D8111C0
:1007100002C00E94BF1D0E94050F0C943C030C9464
:100720003703089581E008950C949203CF93C82F66
:100730000E9440038C2F0E949403CF910895089546
:100740000E94A7160E949F032FEF84E39CE0215094
:1007500080409040E1F700C000000C94551F0F93BB
:100760001F93CF93DF93EC010E947D038C01BE01A8
:100770000E944B03882379F1BE01C8010E94B90F82
:10078000882349F1BE01C8010E94FA0F882319F19C
:10079000BE01C8010E9425118823E9F0BE01C801ED
:1007A0000E944C0D8823B9F08A81882369F00115D5
:1007B0008CE5180731F00E3D1C4531F40E94BF1D39
:1007C0000AC00E94A00307C0CE01DF91CF911F9104
:1007D0000F910C94470380E0DF91CF911F910F910F
:1007E000089580E090E0089508959FE0799FF001DA
:1007F00011249BE4899FE00DF11D1124E60FF11DEA
:10080000EE0FFF1FEC5DFE4F859194910895880FC8
:10081000991FFC01E05BFD4F859194910895CF9362
:10082000DF930E94F5030E945E05EC01811521E52E
:10083000920708F042C0811560E5960708F0D8C01D
:10084000883E910500F5803E910508F033C1883A55
:10085000910570F4853A910508F0A4C081309105A6
:1008600009F428C108F424C1049708F023C120C169
:100870008F3B910508F49EC0803C910508F418C197
:10088000805C9109A4C0C11580E3D80780F4C1152C
:1008900090E2D90708F099C0C03FD10508F408C11B
:1008A000CF3FD10511F008F005C1D06503C1C115D6
:1008B00020E4D20708F099C08EC0811569E596073B
:1008C00060F5C11588E5D80708F0DEC0C11594E5CC
:1008D000D90778F4C11523E5D20708F0BAC0C115CD
:1008E00062E5D60708F09FC0DC2FCC27C16FD06A25
:1008F000E1C0C11585E5D80708F4C1C0C11596E56A
:10090000D90708F0D5C08C2F0E94F2058F71C82F2F
:10091000D0E0DC2FCC27D062CDC08D3B2CE59207F8
:1009200009F4BDC0E0F4CB3B8CE5D80709F4B1C0B5
:1009300008F0B2C0C1152AE5D20708F0B9C08C2F63
:100940008F700E94F20594E0D695C7959A95E1F7CD
:10095000CF70D0E0DC2FCC27D069C82BABC0803C57
:100960009C4509F4A2C0C13C8CE5D80760F4CE3B9D
:100970009CE5D90709F496C0CF3BDC4509F098C047
:10098000C0E0D2ED97C0CE0190568115904208F09C
:100990008FC08D2F8F710E94F205DD27D0628F717D
:1009A000D82B88C0C55AD0E0CF5ADE4FC881D0E0DE
:1009B000D06480C0C85AD0E0CC0FDD1FCD5DDE4FC3
:1009C0000990D881C02DD46475C0CE019F700E945B
:1009D0000704EC016FC0CE019927D3FF03C0EC01DF
:1009E000D86C68C0EC01D06C65C0DF70D06A62C0A2
:1009F000837021E030E002C0220F331F8A95E2F7B6
:100A00003C68CE0174E0969587957A95E1F78370FE
:100A1000382BCF70C695C69580E2C89FE00111249F
:100A2000C22BD32B47C04C2F4695469590E2499F49
:100A3000A0011124C370DD2721E030E0C90102C00C
:100A4000880F991FCA95E2F7EC01C42BD52BDC68FF
:100A500031C04C2F4695469580E2489FA001112455
:100A6000C370DD2721E030E0C90102C0880F991F63
:100A7000CA95E2F7EC01C42BD52BDA681BC0DC2F3A
:100A8000CC27C46FD06A16C0DC2FCC27C06FD06AC9
:100A900011C0C0E0D4ED0EC0C0E0D5ED0BC0C0E089
:100AA000D1ED08C0C0E0D0ED05C0C0E0D3ED02C07C
:100AB000C0E0D0E0CE01DF91CF910895823891055A
:100AC00069F1B0F48133910509F46DC048F48932BD
:100AD000910509F463C08A32910509F469C008954B
:100AE0008533910509F455C089339105B9F008950E
:100AF000833E910569F138F4803E9105B1F0823E64
:100B0000910509F10895863E9105A9F1873E910569
:100B1000B9F1843E910509F064C023C02091FD0223
:100B200020FD4FC021FD4DC008958091FD0280FD44
:100B300044C08091FE0280FF44C08091FD0284FD8C
:100B400042C083EE4DC08091FD0282FF38C0F5CFD8
:100B50008091FD0282FD33C08091FE0280FD31C094
:100B6000ECCF8091FE0281FF32C08091FD0284FDB6
:100B70002AC087EE35C08091FD0283FF26C0F5CFE5
:100B80008091FD0283FD21C08091FE0281FD1FC086
:100B9000ECCF8091FD0285FD1CC01DC08091FD023F
:100BA00085FD19C016C08091FD0286FD16C017C0D4
:100BB0008091FD0286FD13C010C089E311C082EE52
:100BC0000FC080EE0DC080E00BC086EE09C084EE41
:100BD00007C089E205C085E303C08AE201C081E362
:100BE00090E008959091FD0292FF0DC0282F28718A
:100BF000283019F4877F846006C0282F24712430A0
:100C000011F48B7F886093FF0DC0282F2871283145
:100C100019F4877E846106C0282F2471243111F4D1
:100C20008B7E88612091FE0220FF0DC0382F387125
:100C3000383019F4877F816006C0382F3171313028
:100C400011F48E7F886021FF0DC0282F2871283174
:100C500019F4877E816106C0282F2171213111F49A
:100C60008E7E886194FD877E089508950895E82F0B
:100C7000F0E0EE0FFF1FE954FD4F80819181089550
:100C80000895A3E6B1E041E050E025E02A0F8D9100
:100C9000E82FE295EF70F0E031A18F70BA0102C049
:100CA000660F771F8A95E2F7CB01962F90959323D5
:100CB00091A392A1892B82A32A13E9CFA4E5B1E0E5
:100CC00041E050E02FE02A0F8D91E82FE295EF7080
:100CD000F0E031A18F70BA0102C0660F771F8A95CC
:100CE000E2F7CB01962F9095932391A392A1892BA4
:100CF00082A32A13E9CFEDEAF2E0A7EBB2E011926A
:100D000011921D921D9272E0E73BF707C1F785E053
:100D10000E9423070C9485035F926F927F928F92BB
:100D20009F92AF92BF92CF92DF92EF92FF920F937A
:100D30001F93CF93DF9303E611E0ADEAB2E0612C9D
:100D4000EE24E394F12C5D018D909C901197119607
:100D50001C921E92E80189918E01E82FE295EF70B6
:100D6000F0E091A18F70A70101C0440F8A95EAF7C6
:100D7000892F842B81A382A1542E5094852182A394
:100D8000D0EADA95F1F784E5C82E81E0D82E80E02C
:100D900090E0E60179906E01272D22952F7030E0CA
:100DA000E90168A12D913C91119770E0D72DDF707A
:100DB00002C075956795DA95E2F760FD08C0B70146
:100DC000082E02C0660F771F0A94E2F702C060E0A7
:100DD00070E0262B372B11963C932E9301968F3083
:100DE0009105B9F681A1D52DD823D1A382A1482B95
:100DF00042A3129681E0F50120813181821693068B
:100E000009F480E0682AF2E0A73BBF0709F09BCF16
:100E1000262D45E067EB72E08DEA92E00E94240700
:100E20000E948F03862DDF91CF911F910F91FF902C
:100E3000EF90DF90CF90BF90AF909F908F907F907A
:100E40006F905F9008950895FF920F931F93CF9333
:100E5000DF93F82E092F162FD72FC42F222349F006
:100E600081E08093C0010E94F91E9093BF0180939E
:100E7000BE018091C0018823D9F08091BE0190917C
:100E8000BF010E94051F069798F0EF2DF02FA12FAC
:100E9000BD2F80E090E04C2F50E08417950734F48C
:100EA000219131912D933D930196F7CF1092C0017E
:100EB000DF91CF911F910F91FF900895AF92BF9254
:100EC000CF92DF92FF920F931F93CF93DF93D62E93
:100ED000372FE82FF0E0711106C0E959FC4F6491FB
:100EE000762F862F75C0C72FD0E0E959FC4F24918B
:100EF000F22E022F10E046E0649FC0011124EFEFB4
:100F0000F0E0BF010E942F2AAB016BEA6403C0012D
:100F1000659F900D11248D0D911D8D0D911D982FA4
:100F2000990F890FDF01AC1BBD0B0A9FB0010B9F0E
:100F3000700D1A9F700D1124972F839FD0011124DB
:100F4000AB2FBB276F01CA1ADB0A0C9DD0010D9D88
:100F5000B00D1C9DB00D11245F01A81AB108AC9E04
:100F60006001AD9ED00CBC9ED00C1124CD2DDD2790
:100F7000EC1BFD0B0E9FE0010F9FD00D1E9FD00DAF
:100F80001124ED2F4230510591F04CF441155105DB
:100F9000E1F041305105B9F4E22F2B2F16C0443057
:100FA000510569F044F04630510579F00CC0E22F4C
:100FB000272F9D2F0AC0272F9F2DEB2F06C0E72F2D
:100FC000922F2D2F02C0E72F9B2F6E2F722F892F6C
:100FD000DF91CF911F910F91FF90DF90CF90BF9045
:100FE000AF9008950895CF93DF93762FE901682F8E
:100FF000842F0E945E07798368838A83DF91CF9173
:1010000008958091C102282F269530E021153105E1
:1010100019F48170826005C02532310524F0817099
:1010200088648093C102089588E090E00C94AE2A11
:10103000CF93DF9300D000D0CDB7DEB7AB01BC01BA
:1010400049835A836B837C830E94010849815A81BA
:101050006B817C8188E090E00F900F900F900F9053
:10106000DF91CF910C94CC2AE1ECF2E083E0808315
:1010700011828FEF828383831482608171818281E8
:1010800093810C9418088091C10280FF02C086955C
:10109000089580E008958091C502833018F48F5F31
:1010A0008093C5026091C1027091C2028091C30217
:1010B0009091C4020C9418088091C502882319F0FD
:1010C00081508093C5026091C1027091C2028091EB
:1010D000C3029091C4020C9418086091040170E05E
:1010E0008091C10280FF0AC08091C50123E0829FE8
:1010F000C00111248A539D4F0C94490F8091C40163
:1011000090910301891780F7E82FF0E09F01220FEB
:10111000331FE20FF31FEA53FD4F11821082128238
:101120008F5FF0CF9091C10290FF16C09091C401E3
:1011300020910301921770F4E92FF0E0DF01AA0F6C
:10114000BB1FEA0FFB1FEA53FD4F8183608342837D
:101150009F5FF0CF0C946D080895CF93DF9300D07C
:101160001F92CDB7DEB79091C10290FF0AC09E01D9
:101170002F5F3F4F0E94F3074B8169818A810E9454
:1011800092080F900F900F90DF91CF910895CF9319
:10119000DF93EC01EC81F0E0EE59FD4F4491E1EC7E
:1011A000F2E0628181810E94AD088C818F5F8C8327
:1011B000DF91CF910895CF93DF93EC01E1ECF2E062
:1011C000438162818C810E94AD088C818F5F8C830A
:1011D000DF91CF9108950F931F93CF93DF9300D0AA
:1011E0001F92CDB7DEB78C018091C10181110AC079
:1011F0009E012F5F3F4F4FEF6FEF0E94F3078A81F1
:101200008093C101F8018481813051F028F082304F
:1012100061F44091C1010AC08091C10140E007C062
:101220006091C10140E080E003C040E080E060E008
:101230000E949208F801248130E0C901019663E020
:1012400070E00E94432A84830F900F900F90DF91EB
:10125000CF911F910F910895AF92BF92CF92DF92DD
:10126000EF92FF920F931F93CF93DF9300D01F92C3
:10127000CDB7DEB7182FF62E042FE22E9091C102C3
:1012800090FF6EC0E92FE695AE2FB0E0A859BE4F93
:101290008C918093CD019E7F923061F49E012F5FEF
:1012A0003F4F812F0E94F3074B8169818A810E9401
:1012B000920844C0823019F40091C4023FC08630C5
:1012C00019F41091C2023AC08930D9F38931B1F5CD
:1012D000E9518E2F8170D82EE695F0E0EE59FC4F43
:1012E000A590B490C12CBB2460910201C61620F5D4
:1012F000EC2DF0E0EA9DC001EB9D900DFA9D900D64
:10130000112470E00E942F2A812FD11002C0860F75
:1013100001C0861B9091C401E90FF11D9F01220FAE
:10132000331FE20FF31F9F012A533D4F402F6F2DB4
:101330000E94F307C394D8CF0E946D081093C20295
:10134000F092C3020093C402EE2051F06091C102FA
:101350007091C2028091C3029091C4020E94180849
:101360000F900F900F90DF91CF911F910F91FF90F1
:10137000EF90DF90CF90BF90AF900895E1ECF2E056
:101380009181282F4381628188E0890F0C942C0978
:1013900081E00C94BE09E1ECF2E09181282F4381B9
:1013A000628188EF890F0C942C0981E00C94CB09A1
:1013B000E1ECF2E0628128E0620F08F46FEF282F81
:1013C000438181810C942C0981E00C94D809E1ECD3
:1013D000F2E0628128E0621B08F460E0282F43817C
:1013E00081810C942C0981E00C94E709E1ECF2E096
:1013F000438128E0420F08F44FEF282F628181815A
:101400000C942C0981E00C94F609E1ECF2E04381A4
:1014100028E0421B08F440E0282F628181810C946F
:101420002C0981E00C94050A20E00C942C09FF9211
:101430000F931F93CF93DF93EC01F12C0FEF10E08C
:1014400060910201F616E8F42091C40130E02F0DFE
:10145000311DC901880F991F280F391F2A533D4F8D
:1014600070E0C8010E94432A962F8C814091C402EB
:101470006091C302F99E800D11240E94F307F3943A
:10148000DFCF0E946D089A818C8190FF02C08F5F30
:1014900001C081508C83DF91CF911F910F91FF90FC
:1014A0000895BF92CF92DF92EF92FF920F931F9316
:1014B000CF93DF93FC01828180FF02C00FEF01C058
:1014C00001E010E080910201181708F040C0C12E21
:1014D000D12C8091C401E601C80FD11DCE01880F27
:1014E000991FC80FD91FCA53DD4F198218821A825B
:1014F00034E0E32EF12CB12C8091C3018B0D8131AE
:1015000014F08F7005C087FF03C090910201890F0E
:10151000082E000C990BC816D90691F48091C402CC
:101520008E9DA0018F9D500D112455954795559581
:1015300047959E016091C3028091C2020E94F30709
:10154000B00EF1E0EF1AF108B9F61F5FBBCF0E94B1
:101550006D088091C301013031F4811102C0809186
:101560000201815007C090E001966091020170E095
:101570000E94432A8093C301DF91CF911F910F9165
:10158000FF90EF90DF90CF90BF900895CF93809120
:10159000C40190910301891770F4E82FF0E09F01D6
:1015A000220F331FE20FF31FEA53FD4F1182108207
:1015B00012828F5FF0CFC0E060910201C617B8F5CC
:1015C000EC2FF0E070E0CF010E94432A4091C4016B
:1015D000480F8091C201082E000C990B50E0E817CB
:1015E000F907C4F020910101022E000C330B2E17D5
:1015F0003F0784F09A01220F331F240F351F2A530F
:101600003D4F4091C4026091C3028091C2020E948A
:10161000F3070BC0FA01EE0FFF1F4E0F5F1FFA0119
:10162000EA53FD4F118210821282CF5FC5CF0E9414
:101630006D08209100018091C201820F8093C20148
:1016400090910101920F9093010119165CF4082EFC
:10165000000C990B4091020150E041505109841750
:1016600095071CF0219520930001CF9108950F93C9
:101670001F93CF93DF938C01FC01848195810196A8
:101680008170992795838483C0E0D5E5809102011C
:10169000C817F8F42091C40130E02C0F311DC901A6
:1016A000880F991F280F391F2A533D4F4C2F4695FD
:1016B000F80184819581840F911D81704091C4024D
:1016C0006091C3028D9F802D11240E94F307CF5F8C
:1016D000DDCFDF91CF911F910F910C946D080F9387
:1016E0001F93CF93DF93EC0100E010E080910201A3
:1016F000282F30E00217130724F59091C4019801B8
:10170000290F311DA901440F551F240F351F2A53DE
:101710003D4F869590E04C81081719071CF444232F
:1017200031F002C0411103C04091C40201C040E049
:101730006091C3028091C2020E94F3070F5F1F4FA6
:10174000D5CF0E946D082C8130E02F5F3F4F217074
:1017500033272C83DF91CF911F910F910895E1ECF6
:10176000F2E080818E7F80836081718182819381AC
:101770000E9418081092CE012FEF80E792E02150CE
:1017800080409040E1F700C000000C946D08E1EC4F
:10179000F2E080818E7F80831092CE012FEF80E770
:1017A00092E0215080409040E1F700C000000C948E
:1017B0006D086091C102669570E04BE050E085E0F5
:1017C00091E00E94992A892B19F481E08093CE013F
:1017D0000E94F91E9093C7018093C60108959091CD
:1017E000C10290FF35C09170811102C0926006C0A5
:1017F000853210F0986402C0880F982B9093C10234
:10180000662351F06091C1027091C2028091C302BF
:101810009091C4020E9418086091C102669570E020
:101820004BE050E085E091E00E94992A892B19F065
:101830001092CE0102C00E94D90B81E08093C901B1
:101840004091C4026091C3028091C2020C94140AB8
:101850000895682F9091C102969581E0890F853295
:1018600008F081E00C94EF0B81E00C94290C682FB8
:101870009091C10296958FEF890F09F484E20C9440
:10188000EF0B81E00C94370C61E00C94EF0BE1EC72
:10189000F2E080818160808386950C94440C809175
:1018A000C10280FD0C94AF0B0C94470C60E00C94CB
:1018B000EF0B8091CC0181112EC00E940C1D811173
:1018C00004C00E94BF1D0E9434080E941408609347
:1018D000C1027093C2028093C3029093C4026E7FD0
:1018E00061F40E9434080E9414086093C10270934E
:1018F000C2028093C3029093C4020E940108109216
:10190000CE018091C10280FF03C086950E94560CD3
:1019100081E08093CC010895E1ECF2E08081816068
:10192000808386950C94560C1092CE0108950F93E7
:101930001F93CF93DF938091CE01882309F48CC04D
:101940008091CD01E091C102E695E81BE093C801CA
:10195000823049F4F0E0E25AFD4FE491CE2FD0E01E
:1019600007EC18E049C0863049F4F0E0E55AFD4F35
:10197000E491CE2FD0E00BED18E03EC0893051F459
:10198000E695F0E0E85AFD4FE491CE2FD0E007E174
:101990001AE032C08F3051F4E695F0E0EB5AFD4F7B
:1019A000E491CE2FD0E001E51AE026C0853149F45C
:1019B000F0E0EE5AFD4FE491CE2FD0E006EC1AE0B5
:1019C0001BC0883181F0833239F4E0E5F2E0C59143
:1019D000D4910BEE18E010C0843251F4C4EFD1E082
:1019E0000FE61BE009C0C8EED3E007E31BE004C02C
:1019F000C0EDD7E002EF17E08091C901882389F09C
:101A00001092C9010E94F91E9E0120953095820F07
:101A1000931F9093C7018093C6011092CB0110923F
:101A2000CA018091C6019091C7010E94051F8C17C1
:101A30009D0790F0E091C601F091C701CE0FDF1F26
:101A4000D093C701C093C60186EC91E0F801DF9105
:101A5000CF911F910F910994DF91CF911F910F9119
:101A60000895882311F0FA0101C0FB010994CF9376
:101A7000DF93C82FD62F0E9443088C1740F00E9496
:101A800043088D1720F4DF91CF910C94340C8C2FE8
:101A9000DF91CF910C94440C0F931F93CF93FB01D4
:101AA000C281CC2309F463C08C010E945C1C827249
:101AB000F801E25CFC45E431F10508F059C0EA5A4E
:101AC000FF4F0C94792A0E944F0C06C041E45CE061
:101AD00064E37CE00E94310DC0E04AC044E35CE076
:101AE00061E47CE0F7CF45ED59E068EC79E0F2CFB6
:101AF00048EC59E065ED79E0EDCF43EF59E064EE55
:101B000079E0E8CF44EE59E063EF79E0E3CF41E1DB
:101B10005AE062E07AE0DECF42E05AE061E17AE04A
:101B2000D9CF4CE558E06BE478E0D4CF4BE458E0F3
:101B30006CE578E0CFCF81E017C065E082E010C0AF
:101B400068E086E00DC06EE089E00AC064E18FE0E5
:101B500007C067E185E104C088E106C062E289E16F
:101B60000E94370DB9CF83E20E94440CB5CFC1E08B
:101B70008C2FCF911F910F9108950E940C1D811100
:101B800002C00E94BF1D0E94471D8093F602282FAD
:101B900026952695269530E02630310524F087706D
:101BA00088628093F6028091F60280FF04C08695D9
:101BB0008695869501C080E00C94A80E2091F602CF
:101BC000822F869586958695482F50E045305105A1
:101BD00054F48F5F982F990F990F990F822F877068
:101BE000892B8093F6028091F60281608093F60241
:101BF0000E944B1D8091F6028695869586950C94E1
:101C0000A80E8091F602982F969596959695A1F03C
:101C1000915E990F990F990F8770892B8093F60227
:101C2000887F91E009F490E08091F60290FB80F9C2
:101C30008093F6020E944B1D8091F6028695869550
:101C400086950C94A80E8091F60280FD13C08160E9
:101C50008093F602813019F489E08093F602809136
:101C6000F6020E944B1D8091F60286958695869518
:101C70000C94A80E08958091F60280FF08C08E7F14
:101C80008093F6020E944B1D80E00C94A80E0895EC
:101C90008091F60280FD0C943B0E0C94230E9091E3
:101CA000F602892F8695869586958F5F8F7197703E
:101CB000863038F4880F880F880F892B8093F602BE
:101CC00002C09093F6028091F602887F91E009F4B9
:101CD00090E08091F60290FB80F98093F6020E94DA
:101CE0004B1D8091F6028695869586950C94A80EDC
:101CF000863008F085E09091F6029770282F220F29
:101D0000220F220F922B9093F602987F21E009F484
:101D100020E09091F60220FB90F99093F6020C944B
:101D2000A80E0E94780E8091F6020C944B1DE82FAD
:101D3000E295EF70F0E032A1282F2F7081E090E063
:101D400001C0880F2A95EAF78095832382A308951E
:101D5000CF92DF92EF92FF92863030F4811105C06E
:101D6000909180009F7D04C085E0909180009062FA
:101D700090938000282F30E0AFEFBFEF0E947F2AC2
:101D800025E030E040E050E00E94572A2C3784E103
:101D900038074105510530F4C90169E070E00E943F
:101DA0002F2A29C0DA01C9018A50974DAF4FBF4F82
:101DB0006627782F892F9A2F25EF38E241E050E0EF
:101DC0000E94572A69017A01CA01B9010E941F2A9B
:101DD0009B01AC01C701B6010E941F2ABB27A92F96
:101DE000982F872F009721E0A207B10511F0BC01C1
:101DF00002C06FEF7FEF70938B0060938A00FF90BB
:101E0000EF90DF90CF9008950895269A86E30E9480
:101E1000970E82E28093800089E1809381008FEFAA
:101E20009FEF90938700809386000C94BD0D2EB198
:101E3000342F309523233EB1432B3FB7F894FC0158
:101E4000680F791FE617F70789F0819198E04EB97E
:101E5000000000C087FF2EB9880F000000C000C03E
:101E600000C02EB900C09A9591F7ECCF3FBF0895FE
:101E70002DB1242B2DB99B01220F331F620F731F2D
:101E80000E94170F87EC90E00197F1F700C0000067
:101E9000089544E00C94380F0F931F93CF93DF9372
:101EA000C62FD42F022FFC0182818823C9F06093B2
:101EB000D1010E94F91E9093D0018093CF0180E25E
:101EC0008C0F883008F050C0C77081E001C0880FC7
:101ED000CA95EAF7DF91CF911F910F910C94D1131E
:101EE0001091D101161330C08091CF019091D00193
:101EF0000E94051F883C910538F5C0E2CD0F1D17E3
:101F0000B9F080E2810F883040F4177081E001C0A1
:101F1000880F1A95EAF70E94D813C83048F481E078
:101F20009D2F977001C0880F9A95EAF70E94D113F0
:101F3000802F0E94BE13C830B8F4D77081E001C072
:101F4000880FDA95EAF70AC080E28C0F883060F4D7
:101F5000C77081E001C0880FCA95EAF7DF91CF9181
:101F60001F910F910C94D813DF91CF911F910F9176
:101F700008959C01CB01233F4CE53407F9F078F438
:101F8000283DFCE53F07B9F0293D4CE5340711F148
:101F9000273D3C4531F526E241EE61EE1EC0253F6E
:101FA000FCE53F0799F070F0263F3C45D1F427E26D
:101FB00045EE66EE12C027E245EE0EC026E241EE87
:101FC00060EE0BC027E245EE64EE07C026E241EE6C
:101FD00062EE03C028E241E065EE0E944C0F80E013
:101FE0000895FC018281882319F01092D10108958F
:101FF00081E00895CF93DF93EC01FB018281882378
:1020000009F41FC1C230FCE5DF0708F41BC1C6316B
:102010009CE5D90738F09E012A5F3C4529303105FF
:1020200008F010C10E94291D9093FE028093FD02CA
:10203000C031ECE5DE0709F4C3C008F041C0C83088
:102040008CE5D80709F49AC0F0F4C430ECE5DE075B
:1020500009F487C068F4C2308CE5D80709F477C06A
:10206000C330DC4509F0E3C08091FD02826076C098
:10207000C630ECE5DE0709F46EC008F07BC0809145
:10208000FD0288606BC0CC308CE5D80709F485C0B0
:1020900068F4CA30ECE5DE0709F474C008F079C0D2
:1020A0000E94A7168091FD02806858C0CE308CE552
:1020B000D80709F476C008F07FC08091FD028BC07C
:1020C000CB3FECE5DE0709F44FC018F5C3318CE5D2
:1020D000D80709F47DC078F4C131ECE5DE0709F4D6
:1020E00073C0C231DC4509F0A2C00E94A7168091DE
:1020F000FD028F7733C0C5318CE5D80709F472C073
:1021000008F486C0CA3FDC4509F091C08091FE0208
:102110003EC0CF3FFCE5DF0709F45FC058F4CD3F78
:102120009CE5D90709F444C008F43FC08091FE0241
:1021300082602DC0C130FDE5DF0709F475C008F4E9
:102140005DC0C230DD4509F072C080E06EC0809194
:10215000FD02816003C08091FD0280618093FD02D9
:1021600066C08091FD0211C08091FE028260809362
:10217000FE025DC08091FD028062F0CF8091FD0281
:102180008064ECCF8091FD0288608460E7CF81603D
:10219000EECF8091FD028E7FE1CF8091FD028D7F99
:1021A000DDCF8091FD02877FD9CF8091FE0218C0DC
:1021B0008091FE028D7FDBCF8091FD028F7ECECF9E
:1021C0008091FD028F7DCACF8091FD028F7BC6CFAB
:1021D0008091FD02877F8B7FC1CF8091FE028D7F32
:1021E0008E7FC5CF8091FD0282FB222720F991E0EE
:1021F000922790FB82F990FB83F9B0CF8091FE0289
:10220000982F909591708E7F892B90FB81F9AFCF9D
:102210000E94A7168091FD0287FB222720F991E0FA
:10222000922790FB87F99ACF81E00E94C11D80918F
:10223000FD029091FE020E943A1D0E94A71680E0C6
:1022400001C081E0DF91CF910895CF93DF93863174
:102250009C4541F5EB010E945C1C282F8A8140912E
:10226000100150911101882379F02A7A91E009F444
:1022700090E09093D201911102C069E201C065E340
:10228000CA010E942B1E0AC08091D201811102C096
:1022900069E201C065E3CA010E94361E0E94A81CC3
:1022A00080E001C081E0DF91CF9108959093D80143
:1022B0008093D7010895E091D701F091D80130972C
:1022C00021F00190F081E02D099480E00895E091E3
:1022D000D701F091D801309799F020912201222363
:1022E00059F02091FD0227FF07C0DC012C911196C7
:1022F0002C93119725E02C930280F381E02D099413
:102300000895E091D701F091D801309739F022E09B
:10231000DC012C930480F581E02D0994089520912F
:10232000D5013091D6018217930771F09093D601B1
:102330008093D501E091D701F091D801309721F039
:102340000680F781E02D099408952091D301309102
:10235000D4018217930771F09093D4018093D30135
:10236000E091D701F091D801309721F00084F185F8
:10237000E02D0994089585B7806885BF85B780688A
:1023800085BF0895089508950C94C31108950C9481
:10239000C6110E94BB110E94C2110C94C41181E0AD
:1023A00008950E94F01E0E9441060E94C51F0E94CF
:1023B000BD0D0E94590C0C94C7117F928F929F9271
:1023C000AF92BF92CF92DF92EF92FF920F931F9343
:1023D000CF93DF93CDB7DEB72A970FB6F894DEBF61
:1023E0000FBECDBF0E948C060E94CF11811111C07B
:1023F0008FEF89838A831B820E94F91E8160782F68
:102400009D838C8349815A816B818D810E949112B9
:102410004FC03AED832E31E0932E00E010E0702E95
:10242000802F0E9437066C01F401A190B1904F01FA
:10243000A826B926A114B10431F40F5F1F4F05304F
:10244000110569F7D5CF80917C0281FD0E9440067D
:1024500090E0EE24E394F12C97012A213B21232BD9
:1024600009F19E837F82CE20DF2091E0CD2809F400
:1024700090E098870E94F91E8160782F9A8789875B
:102480004E815F8168858A850E949112000F111F1D
:10249000F801E652FE4F80819181E826F926F1820B
:1024A000E08206C09F5FEE0CFF1C9F30A9F6C5CFEF
:1024B0000E94970C0E94040F0E9479221091D9016A
:1024C0000E945B111817C9F00E945B118093D9011B
:1024D0002A960FB6F894DEBF0FBECDBFDF91CF9125
:1024E0001F910F91FF90EF90DF90CF90BF90AF9032
:1024F0009F908F907F900C9496032A960FB6F89435
:10250000DEBF0FBECDBFDF91CF911F910F91FF9026
:10251000EF90DF90CF90BF90AF909F908F907F9083
:102520000895CF93DF93CDB7DEB72B970FB6F8940E
:10253000DEBF0FBECDBF4F83588769877A878B87F1
:10254000DE01119686E0FD0111928A95E9F785E09A
:10255000FE01379601900D928A95E1F749815A81E3
:102560006B817C818D819E810E9451192B960FB6C3
:10257000F894DEBF0FBECDBFDF91CF910895FC016F
:10258000808191810E941D1C0895882309F48DC0CB
:102590008238C1F40E945B1181FD87C069E380919C
:1025A0001001909111010E942B1E0E94A81C2FEF78
:1025B00081EE94E0215080409040E1F700C000009F
:1025C00069E319C08338F9F40E945B1180FD6DC086
:1025D00063E580911001909111010E942B1E0E94D1
:1025E000A81C2FEF81EE94E0215080409040E1F74D
:1025F00000C0000063E580911001909111010E94DC
:10260000361E0C94A81C8438C1F40E945B1182FD14
:102610004CC067E480911001909111010E942B1E23
:102620000E94A81C2FEF81EE94E021508040904042
:10263000E1F700C0000067E4DECF9CEF980F913A0D
:1026400040F4682F80911001909111010E942B1E7F
:10265000D8CF90E2980F983050F4877091E001C085
:10266000990F8A95EAF7892F0E945F1CCACFEBE584
:10267000E80FE33038F4F0E0E554FE4F808190E05D
:102680000C948F11E8E5E80FE73148F4F0E0EE0F25
:10269000FF1FE357FE4F808191810C94A511803F6D
:1026A00020F00E9481210C946E220895882309F461
:1026B00064C0823879F40E945B1181FF5EC069E3D7
:1026C00080911001909111010E942B1E0E94A81C64
:1026D00069E310C08338B1F40E945B1180FF4DC0E4
:1026E00063E580911001909111010E942B1E0E94C0
:1026F000A81C63E580911001909111010E94361E83
:102700000C94A81C843879F40E945B1182FF35C0B8
:1027100067E480911001909111010E942B1E0E948C
:10272000A81C67E4E7CF9CEF980F913A10F4682F4C
:10273000E1CF90E2980F983050F4877091E001C09B
:10274000990F8A95EAF7892F0E94651CD9CF9BE5DE
:10275000980F933020F480E090E00C948F1198E56E
:10276000980F973120F480E090E00C94A511803F01
:1027700020F00E94E9210C946E220895CF93C82F77
:102780000E94C512C93349F42FEF87EE93E0215020
:1027900080409040E1F700C000008C2FCF910C9456
:1027A0005613882321F00E945F1C0C94A81C0895E6
:1027B000882321F00E94651C0C94A81C0895BF92E8
:1027C000CF92DF92EF92FF920F931F93CF93DF93FD
:1027D0007C01062FC72FFC01158112951F70D28135
:1027E000D1110E947C1C0E94551C882379F0DD23A6
:1027F00069F080E2800F883048F082E00E94F31C8C
:102800000E94551C91E0B82EB92601C0B12CCC2EE7
:10281000C2948FE0C822D12CF601E659FF4F0C94E8
:10282000792A8C2F807FCF70882311F0C295C07FCA
:10283000DD2399F0CC2309F4CFC180E2800F8830EA
:1028400010F0011104C08C2F0E945F1C03C08C2F5C
:102850000E946F1C0E94A81CBFC1802F0E945613AB
:10286000CC2309F402C280E2800F883010F00111FD
:1028700004C08C2F0E94651C03C08C2F0E94751C05
:102880000E94A81CF2C18C2F807FCF70803211F083
:10289000C295C07F002319F00130C9F022C0DD23AA
:1028A00071F0112341F0113031F40E948F1C8C2BF8
:1028B0000E94951CDAC10E948F1C8C2B1DC0112315
:1028C00019F0113009F4D1C10E949E1C25C0DD23EE
:1028D00021F0163008F0C9C10EC0153008F0C5C18E
:1028E0001BC0DD2361F0112331F0F701858180FFEA
:1028F00073C18F7085838C2F0E94D113B6C11123B1
:1029000059F0093309F079C1FFEF27EE83E0F15068
:1029100020408040E1F76FC18C2F0E94D813A5C1E1
:102920008C2F86958695837090E0009719F001971B
:1029300061F09BC1DD2321F0802F9C2F937002C09A
:1029400080E090E00E948F119BC1DD2321F0802F59
:102950009C2F937002C080E090E00E94A51190C16E
:10296000DD23F9F0053F51F0063F71F0043FA9F473
:102970008091F7029091F80281600BC08091F7027C
:102980009091F802826005C08091F7029091F80260
:1029900084609093F8028093F702802F0E94812137
:1029A0001EC0053F51F0063F71F0043FA9F480912D
:1029B000F7029091F8028E7F0BC08091F702909100
:1029C000F8028D7F05C08091F7029091F8028B7F0D
:1029D0009093F8028093F702802F0E94E9210E94D1
:1029E0006E224EC18C2F837009F049C0D11144C1B1
:1029F000402F429546954770440F440F602F6F70EB
:102A0000862F90E0A0E0B0E0042E04C0880F991F4C
:102A1000AA1FBB1F0A94D2F704FF10C00FE010E0FA
:102A200020E030E004C0000F111F221F331F4A9521
:102A3000D2F7009510952095309503C000E010E086
:102A40009801C695C695C370D0E0BC01CD01602B3E
:102A5000712B822B932BC230D10559F0C330D10595
:102A600059F0219719F00E94961A06C10E94841A03
:102A700003C10E94A81A00C10E94821AFDC0DD2372
:102A800019F08C2F817001C08695882309F4F4C059
:102A9000402F429546954770440F440F602F6F704A
:102AA000862F90E0A0E0B0E0042E04C0880F991FAC
:102AB000AA1FBB1F0A94D2F704FF10C00FE010E05A
:102AC00020E030E004C0000F111F221F331F4A9581
:102AD000D2F7009510952095309503C000E010E0E6
:102AE0009801C695C695C370D0E0BC01CD01602B9E
:102AF000712B822B932BC230D10559F0C330D105F5
:102B000059F0219719F00E945C1BB6C00E944A1B25
:102B1000B3C00E946E1BB0C00E94BD1AADC0CF7082
:102B2000DD2339F08C2F0E94E31A802F0E94D113ED
:102B3000A3C0802F0E94D8138C2F0E94041B9CC01E
:102B4000023F01F128F4003F41F0013FA1F040C0F5
:102B5000033FF9F0043F39F13BC0DD2341F015306C
:102B600008F083C08C2F8F710E94291B7EC0163005
:102B700008F07BC0F7CFDD2339F08C2F8F710E94D6
:102B8000E31A73C0DD23C9F38C2F8F710E94041BDD
:102B90006CC0DD2329F08C2F8F710E94CE1A65C086
:102BA0000E94C91A62C0DD2349F0CF718C2F0E94A8
:102BB000E31A63E08C2F0E94DE1C57C081E00E9464
:102BC000F31C123008F451C082E00E94F31C4DC087
:102BD000DD2331F0112389F2802F0E94C51245C0F8
:102BE000112391F2093349F49FEFE7EEF3E091509E
:102BF000E040F040E1F700C00000802F0E94561333
:102C000034C04C2F4F70602FC7010E94F1030E9407
:102C1000F51936C0D11134C0CF70D0E0C230D10523
:102C200099F03CF4209769F02197F9F40E94010E85
:102C300027C0C430D10571F054F02597B1F480E07D
:102C40000AC00E94DE0D1CC00E94480E19C00E94DE
:102C50004F0E16C085E00E94910E12C04C2F4F708F
:102C6000602FC7010E94F4030BC028E0C21AD108EC
:102C700084E0C816D10420F40E945B110E949603E0
:102C8000BB20D1F00E94511C80FD16C0F7011282BA
:102C90000E944B1C0E94E31AC7010E9466160E9404
:102CA0004B1CDF91CF911F910F91FF90EF90DF9020
:102CB000CF90BF900C94041BDF91CF911F910F9187
:102CC000FF90EF90DF90CF90BF9008950F931F93E8
:102CD000CF93DF93EC01888199812B813C81232B59
:102CE000B9F09F3F11F48F3F99F0CE010E94AF03DE
:102CF000882371F0688179818A810E94281C8C0167
:102D00000E94801B0E94811AB801CE010E94DF132D
:102D1000DF91CF911F910F9108950E947C1C0E941A
:102D20008C1C0E94A81C0E9414230E946E2280E02A
:102D300090E00E948F1180E090E00C94A5118091AA
:102D40001001909111010E94411E0C948D160E9459
:102D50006C1C0C949F16E92FE295EF70F0E032970F
:102D6000EE30F105B0F4E658FF4F0C94792A803F1D
:102D700091F018F4883E68F40EC0843F51F40BC003
:102D8000883E48F0813F29F406C093FB882780F9EC
:102D9000089580E0089581E008950E941D1C0E941E
:102DA000AB160895CF93DF9300D000D01F92CDB71C
:102DB000DEB70F900F900F900F900F90DF91CF9193
:102DC0000895CF93DF9300D000D000D0CDB7DEB709
:102DD00026960FB6F894DEBF0FBECDBFDF91CF9120
:102DE00008951F93CF93DF93C091E50116E0809182
:102DF000E601C81799F0D0E01C9FF0011D9FF00D6F
:102E00001124E951FE4F4081518162817381848197
:102E100095810E94E1162196C770E9CFDF91CF918D
:102E20001F91089540911702509118026091190264
:102E300070911A0280911B0290911C020C94E11671
:102E400080911C0282958F7009F054C08091190204
:102E5000882309F44FC08091E501A091E6016091BB
:102E600017027091180240911A0250911B02B6E0AD
:102E70008A1709F43FC090E041155105C1F17F3F29
:102E800011F46F3FA1F1B89FF001B99FF00D11242B
:102E9000E951FE4F218172132AC02081621327C09D
:102EA0002281211124C0238134812417350710F495
:102EB00021503109241B350B283C3105C0F42091E9
:102EC0001C022F70206120931C0226E0289FF00135
:102ED000299FF00D1124E451FE4F80818F70806195
:102EE000808387E192E00E9466160C94F1160196A9
:102EF0008770BECF0895CF92DF92EF92FF920F932B
:102F00001F93CF93DF93CDB7DEB762970FB6F894D8
:102F1000DEBF0FBECDBF8C0185E0F801DE011D963E
:102F200001900D928A95E1F7D8014C9111965C9130
:102F3000119712966C9112971396CD90DC9014977E
:102F4000309117027091180280911A0290911B0221
:102F5000009709F46BC17F3F19F43F3F09F466C144
:102F6000E0901902EE2009F4C0C020911C02C8169E
:102F7000D90628F0F601E81BF90BCF0104C08095B3
:102F800090958C0D9D1DFF24F394883C910578F05D
:102F9000F12C207F09F0C6C07C2DD98AC88A898986
:102FA0000E94D21687E192E00E946616B1C0822F7D
:102FB000807F09F046C0751314C0341312C061112C
:102FC00010C02F70206120931C020E94121787E10D
:102FD00092E00E94661680911C02D80115968C938F
:102FE0002EC0CD2819F15F3F11F44F3FF9F0F62EB6
:102FF00061111CC08091E5012091E60136E0821745
:1030000009F45AC090E0389FF001399FF00D112467
:10301000E951FE4F7181571306C07081471303C0F9
:103020007281711103C001968770E9CFF62E662375
:1030300009F427C180911C02816080931C02F12C4D
:1030400020C1751308C0341306C0611104C08091FB
:103050001C02D801C3C04D875E878D859E856A8B13
:103060000E94CD166A898823E1F16623D1F120916F
:103070001C02822F82958F7090E0029774F08091ED
:1030800017029091180298878F831986DB86CA866B
:103090002C87CE0107960E94661686E0F801A7E10C
:1030A000B2E001900D928A95E1F70E9420170E94EC
:1030B0001217FF24F394E5C04D875E878D859E85AA
:1030C0000E941D1C292F22952F7030E022303105DF
:1030D0000CF0CBC09F7009F0C5C0805E883008F44A
:1030E000D0C0C8010E946616E4CFC816D90608F4FD
:1030F00053C0F601E81BF90BCF01883C910508F499
:1031000050C0F12C7C2DD98AC88A89890E94D21698
:10311000E7E1F2E086E0DF011D928A95E9F70E947F
:103120001217AFC0751314C0341312C0611110C050
:1031300080911C02F8018583C8010E94661686E012
:10314000E7E1F2E0DF011D928A95E9F7FE2C99C0D4
:103150004D875E878D859E856A8B0E94CD166A8914
:10316000882309F4BECF662309F4BBCF20911C024B
:10317000822F82958F7090E002970CF48ECF809111
:103180001702909118029A8389831B82DD82CC8278
:103190002E83CE0101967FCF809590958C0D9D1D3D
:1031A000ACCFF62E662309F49CCF75132EC03413D2
:1031B0002CC020911C0220FD1FC0822F82958F7091
:1031C000D9F0D80115962C9315978F3049F08F5F61
:1031D000982F9295907F822F8F70892B15968C93C4
:1031E000C8010E94661686E0F801A7E1B2E00190EE
:1031F0000D928A95E1F793CF86E0F801A7E1B2E05E
:1032000001900D928A95E1F73CC04D875E878D85D0
:103210009E850E94CD16811140CF80911C02816055
:1032200080931C02C8010E9466162BC0662309F415
:1032300058CF4D875E878D859E850E94CD16F82ECE
:10324000882309F44ECF86E0F801A7E1B2E00190AF
:103250000D928A95E1F787E192E00E94BF120E94E9
:1032600020175DCF811139CF0CC0243031050CF00F
:1032700038CF9F7009F431CFF8019581907F09F024
:103280002CCF8F2D62960FB6F894DEBF0FBECDBF48
:10329000DF91CF911F910F91FF90EF90DF90CF9032
:1032A00008951F93CF93DF93CDB7DEB72C970FB65A
:1032B000F894DEBF0FBECDBF4F83588769877A87EA
:1032C0008B879C87CE0107960E947B17882369F025
:1032D0008F8198852A853B85232BF1F19F3F09F04B
:1032E00063C08F3F09F060C037C086E0FE013796AB
:1032F000DE01119601900D928A95E1F76F81788534
:10330000EA85FB85309741F17F3F11F46F3F21F152
:103310002091E60130E0C90101968770992740911C
:10332000E50150E08417950709F447C069837A8363
:10333000FD83EC8396E0929FD001939FB00D112402
:10334000A951BE4FFE01319601900D929A95E1F779
:103350008093E6010E94F11616E08091E5019091BC
:10336000E6018917C1F1189FC001112489519E4FB0
:103370000E947B17882379F1E091E5011E9FF001FF
:103380001124E951FE4F4081518162817381848112
:1033900095810E94E1168091E50190E00196877089
:1033A00099278093E501D9CF4F81588569857A8522
:1033B0008B859C850E94E116CFCF0E94A7161092A4
:1033C000E6011092E501E7E1F2E086E0DF011D92FF
:1033D0008A95E9F7C1CF2C960FB6F894DEBF0FBEE1
:1033E000CDBFDF91CF911F910895EF92FF920F9380
:1033F0001F93CF93DF938C01892B09F46CC0F12CC0
:10340000EE24E394E8012196F8018491843740F496
:10341000843008F051C0813081F0823019F15BC0F6
:10342000853709F444C0A8F19CE7980F903708F05D
:1034300052C08F770E94561341C00E5F1F4FFE018E
:10344000C49180E28C0F883048F4C7708E2D01C083
:10345000880FCA95EAF70E947F1C14C08C2F0E9427
:10346000C5122DC00E5F1F4FFE01C49180E28C0F6C
:10347000883058F4C7708E2D01C0880FCA95EAF7BE
:103480000E94851C0E94A81C1AC08C2F0E945613F3
:1034900016C00E5F1F4FFE01C491CC2381F08FE94F
:1034A0009FE00197F1F700C00000C150F6CF0E5F1A
:1034B0001F4FFE01F49003C00E94C5128E018F2D94
:1034C000882309F49FCFEFE9FFE03197F1F700C0BF
:1034D00000008150F5CFDF91CF911F910F91FF90A8
:1034E000EF90089508950C94721A0E94731A6093D5
:1034F00053027093540280935502909356020C9499
:103500008D1608950C94751A0F931F930091530212
:10351000109154022091550230915602602B712B6C
:10352000822B932B1F910F910C94751A0F931F935D
:10353000009153021091540220915502309156028D
:1035400060237123822393231F910F910C94751A8A
:103550000F931F9300915302109154022091550232
:103560003091560260277127822793271F910F9170
:103570000C94751A08950C94BA1A0E94BB1A6093A1
:103580004F027093500280935102909352020C9418
:103590008D1660E070E0CB010C94BD1A0F931F9361
:1035A00041E050E060E070E08A019B0104C0000F40
:1035B000111F221F331F8A95D2F7C901B8011F912D
:1035C0000F910C94BD1A0F931F9341E050E060E0FF
:1035D00070E004C0440F551F661F771F8A95D2F70D
:1035E00080914F0290915002A0915102B0915202ED
:1035F0008A019B01082B192B2A2B3B2BC901B801EF
:103600001F910F910C94BD1A0F931F9341E050E04E
:1036100060E070E004C0440F551F661F771F8A9555
:10362000D2F7409550956095709580914F0290919A
:103630005002A0915102B09152028A019B010823CD
:1036400019232A233B23C901B8011F910F910C9420
:10365000BD1A0F931F9341E050E060E070E004C09A
:10366000440F551F661F771F8A95D2F780914F022E
:1036700090915002A0915102B09152028A019B0197
:10368000082719272A273B27C901B8011F910F9145
:103690000C94BD1A0F931F9300914F02109150028A
:1036A0002091510230915202602B712B822B932B6F
:1036B0001F910F910C94BD1A0F931F9300914F020D
:1036C00010915002209151023091520260237123D7
:1036D000822393231F910F910C94BD1A0F931F9374
:1036E00000914F02109150022091510230915202EC
:1036F00060277127822793271F910F910C94BD1A81
:1037000008952FE0929F800D1124A82FA695A695CD
:10371000A695877051E001C0550F8A95EAF785E0BC
:10372000A89FD001112420E030E070E0F901EA0FF9
:10373000FB1FE35EFD4F4081CB01022E02C0969538
:1037400087950A94E2F781709927819584278523CC
:10375000842780832F5F3F4F2530310539F7089547
:103760002FE0929F800D1124682F669566956695CF
:10377000982F977085E0689FB001112440E050E0D9
:1037800080E0FA01E60FF71FE35EFD4F208130E095
:10379000092E02C0369527950A94E2F72170332747
:1037A000042E01C0220F0A94EAF7822B4F5F5F4F6D
:1037B0004530510531F70895BF92CF92DF92EF92D5
:1037C000FF920F931F93CF93DF938C01C09053020E
:1037D000D0905402E0905502F090560280914F0232
:1037E00090915002A0915102B0915202C82AD92A58
:1037F000EA2AFB2ACFE1D0E0D701C6010C2E04C093
:10380000B695A795979587950A94D2F780FF07C03C
:10381000BC2EB8018C2F0E940F04019719F4219738
:1038200058F7B12C8B2DDF91CF911F910F91FF9005
:10383000EF90DF90CF90BF900895CF93DF93EC018E
:103840000E94DC1BBE010E940F04DF91CF910895FE
:103850001F93CF93DF93EB019091E401992321F023
:10386000CB010E941D1C13C0882349F0CB010E948C
:10387000DC1B182F682FCE010E94811B04C0CB01D6
:103880000E94B01B182FBE01812F0E940F04DF91F0
:10389000CF911F91089580915702859585958595C3
:1038A00008958091570287700895909157029770FC
:1038B00081E009F480E0089580917B020895909161
:1038C0007B02892B80937B020895809590917B02E7
:1038D000892380937B02089510927B020895909132
:1038E0007A02892B80937A020895809590917A02CA
:1038F000892380937A02089510927A020895909114
:103900007902892B809379020895809590917902AC
:103910008923809379020895109279020895809105
:103920005802089508950C94921C9091580298178B
:1039300021F0809358020C94931C089580915802B2
:10394000882329F01092580280E00C94931C08956B
:10395000E0911001F091110180917B028083E09150
:103960001001F0911101908180917A02892B80835E
:10397000E0911001F0911101908180917902892BE1
:10398000808380915802882381F0E0911001F091AA
:1039900011019081892B80838091100190911101F8
:1039A0000E94C61D81110E949E1C80911001909161
:1039B00011010C94671108950C94DB1C98E0899F09
:1039C00090011124262B209357020E94E31A809124
:1039D00057028595859585950C94DC1C10925702AD
:1039E00080E00C94DC1C2091570280958223809308
:1039F0005702982F977079F430E0482F082E000C6A
:103A0000550B2417350739F08595859585950E94C6
:103A1000041B0C94EE1C089580E090E00E94B42AF0
:103A200021E08C3E9E4F09F020E0822F089582E035
:103A300090E00C94A62A682F82E090E00C94BA2AB9
:103A400083E090E00C94A62A682F83E090E00C9429
:103A5000BA2ACF9384E090E00E94A62AC82F81E280
:103A600090E00E94A62A2C2F30E0A901582BCA0111
:103A7000CF910895CF93C92F682F84E090E00E94E2
:103A8000BA2A6C2F81E290E0CF910C94BA2A86E09A
:103A900090E00C94A62A682F86E090E00C94BA2A55
:103AA000AB01BC018FE090E00C94CC2AAB01BC01CF
:103AB00083E190E00C94CC2A60E070E0CB010C94A0
:103AC000561D60E070E0CB010E94501D0C945C1DFF
:103AD0006CEE7EEF80E090E00E94D82A60E082E009
:103AE00090E00E94BA2A60E083E090E00E94BA2A47
:103AF00010925302109254021092550210925602E4
:103B000060E084E090E00E94BA2A60E081E290E008
:103B10000E94BA2A60E085E090E00E94BA2A60E044
:103B200086E090E00E94BA2A6FEF87E090E00E9462
:103B3000BA2A40E050E0BA0188E090E00E94CC2A26
:103B400060E08DE090E00E94BA2A40E050E0BA01C7
:103B500088E190E00E94CC2A60E087E190E00E943A
:103B6000BA2A40E050E0BA018CE190E00E94CC2AF1
:103B700060E080E290E00E94BA2A0C94611D0C94EF
:103B8000681D682F8EE090E00C94BA2AFC013296F2
:103B900080912201882331F08091FD0287FF02C0CD
:103BA0009EE101C096E080E0915028F0219122230F
:103BB000D9F38F5FF9CF08959C01FC0132969FEFF6
:103BC00080E04191461789F09F3F19F4411101C0EF
:103BD000982F8F5F8630A9F79F3F39F0F901E90FE1
:103BE000F11D97FDFA95628308950895FC013296C0
:103BF00008962081261301C010823196E817F90734
:103C0000C1F70895262F2695269526952E3168F41E
:103C1000FC01E20FF11D677021E030E001C0220FCE
:103C20006A95EAF78281282B22830895262F26950C
:103C3000269526952E3170F4FC01E20FF11D677078
:103C400021E030E001C0220F6A95EAF720958281D9
:103C500028232283089520912201222329F02091F4
:103C6000FD0227FD0C94021E0C94DC1D2091220104
:103C7000222329F02091FD0227FD0C94161E0C949E
:103C8000F61D20912201FC013296222331F0809111
:103C9000FD0287FF02C08EE101C086E0DF011D92B8
:103CA0008A95E9F7089508950C94531E0E94541EB6
:103CB00080910303843009F43CC010927D0220E41B
:103CC00088E190E00FB6F894A895809360000FBE4D
:103CD0002093600080E00E94A80E80E00E9496037E
:103CE0000E94940C80917E0281110AC081E0809331
:103CF0007E028091C102817080937F020E94C70B77
:103D00000E94541E83B7817F846083BF83B7816024
:103D100083BF7894889583B78E7F83BF0FB6F8945E
:103D2000A895809160008861809360001092600087
:103D30000FBE089508950895CF930E949A1E0E9481
:103D40008C060E949B1EC0E08C2F0E943706892B98
:103D500029F4CF5FC530C1F780E001C081E0CF9189
:103D6000089508950C94B11E0E94A7160E94BD0DDF
:103D70000E945B110E94960310927E0280917F0246
:103D800081110E948C0C0E94D90B0C94B21E1F92C0
:103D90000F920FB60F9211248F939F93AF93BF93FF
:103DA00080917D02811113C08091F9029091FA02F5
:103DB000A091FB02B091FC024196A11DB11D809320
:103DC000F9029093FA02A093FB02B093FC02BF9118
:103DD000AF919F918F910F900FBE0F901F901895EC
:103DE00082E084BD93E095BD9AEF97BD80936E000D
:103DF00008952FB7F8948091F9029091FA02A0915A
:103E0000FB02B091FC022FBF0895CF92DF92EF9298
:103E1000FF920F931F932FB7F8944091F90250919E
:103E2000FA026091FB027091FC022FBF6A017B01D4
:103E3000EE24FF248C0120E030E0C016D106E2061B
:103E4000F30610F4415051099A01281B390BC9019E
:103E50001F910F91FF90EF90DF90CF90089578948D
:103E60001F920F920FB60F9211248F939F93AF93CF
:103E7000BF938091F9029091FA02A091FB02B09158
:103E8000FC020196A11DB11D8093F9029093FA02E4
:103E9000A093FB02B093FC02BF91AF919F918F91D1
:103EA0000F900FBE0F901F90189581E08093E00057
:103EB00080E28093D8001092C9008FE19EE40197C0
:103EC000F1F700C0000087E090EBDC0180930C0369
:103ED00090930D03A0930E03B0930F039CE088E131
:103EE0000FB6F894A895809360000FBE9093600081
:103EF000FFCFAF92BF92CF92DF92EF92FF920F93DC
:103F00001F93CF93C0E0CC24C394D12CE82EF12C86
:103F10008C2F0E9437065C0100E010E09601002E15
:103F200002C0220F331F0A94E2F72A213B21232BE0
:103F300031F40F5F1F4F0F30110581F70AC0602F5A
:103F40007C2F80E00E94F503E816F90691F781E0E6
:103F500004C0CF5FC530E1F680E0CF911F910F9193
:103F6000FF90EF90DF90CF90BF90AF900895CF93E8
:103F7000C82F8CE20E94791F882321F08C2FCF91CB
:103F80000C94791F80E0CF910895CF930E940C1D6F
:103F9000811102C00E94BF1DC5E6C15049F00E94B8
:103FA0008C068FE39CE90197F1F700C00000F5CF84
:103FB00089E20E94B71F811120C18AE20E94B71FC7
:103FC00081110E94BF1D85E00E94B71F81110E94D0
:103FD000551F0E94171D80937C0287E00E94B71F27
:103FE0008823A9F18BE10E94B71F882351F08091AB
:103FF0007C0281FB222720F991E0922790FB81F936
:104000000EC08EE00E94B71F882361F080917C0271
:1040100082FB222720F991E0922790FB82F980937E
:104020007C0215C080E10E94B71F90917C0288231A
:1040300041F093FB222720F981E0822780FB93F94E
:1040400004C0892F809580FB90F990937C02809129
:104050007C020E941B1D0E94291D9093FE028093EA
:10406000FD0280EE0E94B71F882341F08091FD027F
:10407000982F909590FB80F98093FD0289E30E9430
:10408000B71F882359F08091FD0281FB222720F978
:1040900091E0922790FB81F98093FD0282EE0E94CD
:1040A000B71F882359F08091FD0282FB222720F957
:1040B00091E0922790FB82F98093FD0286EE0E94A8
:1040C000B71F882359F08091FD0283FB222720F936
:1040D00091E0922790FB83F98093FD0283EE0E948A
:1040E000B71F882359F08091FD0284FB222720F915
:1040F00091E0922790FB84F98093FD0285E30E9472
:10410000B71F882359F08091FD0285FB222720F9F3
:1041100091E0922790FB85F98093FD0281E30E9454
:10412000B71F882359F08091FD0286FB222720F9D2
:1041300091E0922790FB86F98093FD0281E10E9435
:10414000B71F882359F08091FD0287FB222720F9B1
:1041500091E0922790FB87F98093FD028091FD0208
:104160009091FE020E943A1D87E20E94B71FC82F5D
:104170008EE10E94B71F8111C2608FE10E94B71FBC
:104180008111C46080E20E94B71F8111C86081E282
:104190000E94B71F8111C06182E20E94B71F811186
:1041A000C06283E20E94B71F8111C06484E20E9452
:1041B000B71F882311F0C06802C0CC2329F08C2FD0
:1041C0000E94241D6C2F03C00E94201D682F70E0E8
:1041D00080E090E00E94821A8FE00E94B71F88233F
:1041E00019F081E00E94C11D85E10E94B71F88235C
:1041F00021F080E0CF910C94C11DCF910895809162
:10420000830280FF0BC06091150185E0689FB001BB
:10421000112475956795759567952BC081FF09C029
:104220006091150185E0689FB0011124759567952F
:1042300020C082FF07C06091150185E0689FB00132
:10424000112417C0909182029923D1F0609114013A
:10425000961788F72091150185E0289F9001112479
:10426000929FA001939F500D112470E0CA010E94FB
:10427000432A6038710540F46115710539F002C0B8
:1042800065E070E0862F08958FE7089581E0089536
:104290008091830280FF08C06091130170E07595E2
:1042A00067957595679521C081FF06C060911301E0
:1042B00070E07595679519C082FF04C06091130185
:1042C00070E010C0909182029923C1F060911201B8
:1042D0009617A0F780911301899FC001112470E007
:1042E0000E94432A6038710528F46115710521F098
:1042F000862F08958FE7089581E0089561E070E0CA
:10430000F4CF803F21F40E94FF20819504C0813FBB
:1043100029F40E94FF20809387020895823F21F4B0
:104320000E94FF20819504C0833F29F40E94FF2052
:10433000809386020895893F19F40E94482105C0A0
:104340008A3F31F40E944821819580938802089524
:104350008B3F21F40E944821819504C08C3F29F4B1
:104360000E944821809389020895843F21F480911E
:104370008502816017C0853F21F4809185028260AB
:1043800011C0863F21F48091850284600BC0873F75
:1043900021F480918502886005C0883F31F48091C6
:1043A000850280618093850208958D3F21F480917C
:1043B000830281600BC08E3F21F480918302826072
:1043C00005C08F3F29F4809183028460809383022B
:1043D0000895803F39F48091870287FF6CC0109266
:1043E000870269C0813F29F4809187021816BCF3C7
:1043F00062C090918602823F29F497FF5CC01092C0
:10440000860259C0833F19F41916CCF354C0893F72
:1044100041F48091880218160CF04DC01092880269
:104420004AC08A3F29F48091880287FF44C0F6CFB2
:104430008B3F39F48091890287FF3DC01092890239
:104440003AC08C3F29F4809189021816BCF333C01E
:10445000843F21F4809185028E7F17C0853F21F42F
:10446000809185028D7F11C0863F21F48091850265
:104470008B7F0BC0873F21F480918502877F05C029
:10448000883F31F4809185028F7E8093850213C02E
:104490008D3F21F4809183028E7F0BC08E3F21F4EB
:1044A000809183028D7F05C08F3F29F48091830224
:1044B0008B7F809383028091860281110EC0809150
:1044C000870281110AC080918802811106C0809103
:1044D0008902811102C010928202089584E892E05C
:1044E0000E9481110E94F91E9093810280938002A4
:1044F00008951F93CF93DF93809180029091810262
:104500000E94051FAC0190918202992321F0209115
:10451000160130E006C0209117018AE0289F900123
:1045200011244217530708F47BC080918602C09182
:104530008702D091880210918902811107C0C111B0
:104540006BC0D11169C0111167C06AC09F3F19F0DB
:104550009F5F90938202181624F40E94FF2080939C
:1045600086028091860287FF05C00E94FF20819508
:10457000809386021C1624F40E94FF2080938702F9
:104580008091870287FF05C00E94FF20819580935C
:104590008702309186023323E1F0209187022223A3
:1045A000C1F045EB3403C0011124892F990F990BF9
:1045B000009709F481E08093860235EB2303C00164
:1045C0001124892F990F990B009709F481E08093AA
:1045D00087021D1624F40E9448218093880280914E
:1045E000880287FF05C00E94482181958093880238
:1045F000111624F40E944821809389028091890237
:1046000087FF05C00E944821819580938902DF9130
:10461000CF911F910C946E229F3F09F099CFA1CFAB
:10462000DF91CF911F910895E4E8F2E086E0DF0189
:104630001D928A95E9F710928202109283020895E2
:104640008091AA020895CF93DF9300D01F92CDB737
:10465000DEB790910303943019F589837B836A83D5
:1046600082E08093E9008FEF9091E800815095FD02
:1046700006C095ED9A95F1F700008111F5CF809174
:10468000E80085FF0DC040E050E063E070E0CE013F
:1046900001960E9483258091E8008E778093E80040
:1046A0000F900F900F90DF91CF910895CF93DF93EC
:1046B000EC010E946625823011F0843031F4BE0195
:1046C00084E0DF91CF910C942323DF91CF91089563
:1046D000BC016058710983E00C942323CF93DF93CE
:1046E000EC010E946625823011F08430F9F482E0FA
:1046F0008093E9009FEF8091E800915085FD06C00E
:1047000085ED8A95F1F700009111F5CF8091E800D1
:1047100085FF0CC040E050E066E070E0CE010E94F2
:1047200083258091E8008E778093E800DF91CF9118
:104730000895CF93DF93EC010E946625823011F03B
:104740008430D9F580912201882339F08091FD02CF
:1047500087FF03C060E282E002C068E081E08093EE
:10476000E9008FEF9091E800815095FD06C095ED2E
:104770009A95F1F700008111F5CF8091E80085FF4F
:104780001CC080912201811105C040E050E068E02A
:1047900070E003C070E040E050E0CE010E9483254D
:1047A0008091E8008E778093E80080E2FE01AAE81D
:1047B000B2E001900D928A95E1F7DF91CF910895D3
:1047C00080910203811109C00E9418270E94752759
:1047D0008091E20084608093E200089510920203C9
:1047E0000895089508950C94B41E42E061EC81E0B0
:1047F0000E94922642E261EC82E00C949226809123
:104800000503833009F460C030F4813071F08230E8
:1048100009F499C008958A3009F485C08B3009F4F1
:104820006BC0893009F0A7C020C080910403813A91
:1048300009F0A1C08091E800877F8093E800809113
:10484000080390910903892B21F460E28AE892E041
:1048500003C060E080E090E070E00E94CE2580918F
:10486000E8008B778093E8000895809104038132FB
:1048700009F081C08091080390910903029708F024
:104880007AC08091E800877F8093E8008091E800FB
:1048900082FD05C0809103038111F8CF6CC0209187
:1048A000F3008091F20090E0922B029729F480911E
:1048B000F1008B7F813021F48091F1008093AA0276
:1048C0008091E8008B7753C080910403813A09F00E
:1048D00052C08091080390910903892B09F04BC0C5
:1048E0008091E800877F8093E8008091E80080FF56
:1048F000FCCF8091220136C0809104038132D9F52A
:104900008091080390910903892BA9F58091E80013
:10491000877F8093E8000E94C726809106038093DA
:1049200022010C94A71680910403813221F5809115
:10493000E800877F8093E8000E94C72680910703E4
:104940008093AB02089580910403813AA1F4809191
:10495000E800877F8093E8008091E80080FFFCCF2B
:104960008091AB028093F1008091E8008E77809374
:10497000E8000C94C726089584B7877F84BF0FB6DC
:10498000F894A895809160008861809360001092EF
:1049900060000FBE90E080E80FB6F894809361004D
:1049A000909361000FBE0E94C9110E9418270E94B7
:1049B00075278091E20084608093E20078940E94E1
:1049C000042A0E94D11188E191E00E945611809141
:1049D0000303853069F40E94561E809101038823E9
:1049E000B1F30E949C1E882391F30E946D25EFCFA6
:1049F0000E94DD11ECCF0C94FD24292F33272330A6
:104A00003105C9F064F42130310581F022303105DF
:104A100009F04CC08BE390E02FE834E04BC021322A
:104A2000310521F12232310589F140C082E190E067
:104A30002AEC34E03FC099278130910571F02CF4C5
:104A4000892BA1F5EBE8F4E00DC08230910541F02F
:104A5000039761F5E7E6F4E005C0E9E7F4E002C09A
:104A6000EDE6F4E0849190E09F0124C061157105AA
:104A700041F061307105D1F489E090E02AEB34E037
:104A800019C089E090E021EA34E014C06115710595
:104A900041F06130710551F480EC90E02CED34E090
:104AA00009C080E490E02CE935E004C080E090E0AB
:104AB00020E030E0FA0131832083089580910303E0
:104AC000843011F081E0089582E008958091AC0275
:104AD000811102C00C945E25089580E189BD82E1B8
:104AE00089BD09B400FEFDCF8091D8008F7D8093F1
:104AF000D8008091E00082608093E0008091E00027
:104B000081FDFCCF0895CF92DF92EF92FF920F9339
:104B10001F93CF93DF93EC018B016A010E94E6267D
:104B2000811133C0C114D10439F0F6018081918123
:104B3000081B190BC80FD91FE12CF12C0115110509
:104B400019F18091E80085FD16C08091E8008E770C
:104B50008093E800C114D10449F0F601808191816D
:104B6000E80EF91EF182E08285E00FC00E94E62681
:104B7000882321F30AC089918093F1000150110923
:104B8000FFEFEF1AFF0ADACF80E0DF91CF911F919C
:104B90000F91FF90EF90DF90CF90089520910A033E
:104BA00030910B032617370748F06115710539F46A
:104BB0002091E8002E772093E80001C0B90140E081
:104BC00061157105A9F120910303222309F443C063
:104BD000253009F442C02091E80023FD40C0209117
:104BE000E80022FD32C02091E80020FFE9CF40918B
:104BF000F3002091F20030E0342BFC01CF0161156D
:104C0000710559F02830310540F481918093F1000D
:104C1000615071092F5F3F4FF1CF41E028303105DE
:104C200009F040E02091E8002E772093E800C8CFFB
:104C30004111C9CF0AC080910303882361F08530F8
:104C400061F08091E80083FD0AC08091E80082FF56
:104C5000F2CF80E0089582E0089583E0089581E036
:104C6000089520910A0330910B032617370748F067
:104C70006115710539F42091E8002E772093E80042
:104C800001C0B901FC0120E06115710591F180912D
:104C90000303882309F440C0853009F43FC08091A4
:104CA000E80083FD3DC08091E80082FD2FC0809127
:104CB000E80080FFE9CF2091F3008091F20090E0BE
:104CC000922B6115710559F08830910540F42491BB
:104CD0002093F1003196615071090196F2CF21E0E5
:104CE000089709F020E08091E8008E778093E80033
:104CF000CBCF2111CCCF0AC080910303882361F070
:104D0000853061F08091E80083FD0AC08091E80061
:104D100082FFF2CF80E0089582E0089583E0089555
:104D200081E00895982F973058F59093E9009817EF
:104D300039F07091EC002091ED005091F00003C02B
:104D4000242F762F50E021FF19C03091EB003E7FD9
:104D50003093EB003091ED003D7F3093ED003091CA
:104D6000EB0031603093EB007093EC002093ED008A
:104D70005093F0002091EE0027FF07C09F5FD3CF34
:104D80008F708093E90081E0089580E0089580911C
:104D9000040387FF11C08091E80082FD05C0809167
:104DA00003038111F8CF11C08091E8008B770BC00D
:104DB00080910303882349F08091E80080FFF8CFB9
:104DC0008091E8008E778093E80008952091E400B8
:104DD0003091E50095E64091EC00842F817040FF12
:104DE00022C08091E80080FD1CC0809103038823CD
:104DF00091F0853091F08091EB0085FD10C04091DD
:104E0000E4005091E5004217530729F39A019150AD
:104E100011F784E0089582E0089583E0089581E029
:104E2000089580E008954091E80042FFDECF0895A4
:104E30000E9486270E948E27E0EEF0E0808181604C
:104E40008083E8EDF0E080818F77808319BCA7ED47
:104E5000B0E08C918E7F8C9380818F7E80831092C6
:104E6000020308950F931F93CF93DF930E94862729
:104E70000E948E27C8EDD0E088818F778883888153
:104E80008068888388818F7D888319BC1092030392
:104E90001092FF02109201031092000300EE10E046
:104EA000F80180818B7F808388818160888342E0E4
:104EB00060E080E00E949226E1EEF0E080818E7F4B
:104EC0008083E2EEF0E08081816080838081886071
:104ED0008083F80180818E7F8083888180618883D0
:104EE000DF91CF911F910F910895E8EDF0E080815F
:104EF0008F7E8083E7EDF0E080818160808384E0B5
:104F000082BF81E0809302030C943227E8EDF0E049
:104F100080818E7F80831092E20008951092DA00E3
:104F20001092E10008951F920F920FB60F92112474
:104F30002F933F934F935F936F937F938F939F93A1
:104F4000AF93BF93EF93FF938091E10082FF0BC07B
:104F50008091E20082FF07C08091E1008B7F809307
:104F6000E1000E94032A8091DA0080FF1FC0809137
:104F7000D80080FF1BC08091DA008E7F8093DA001A
:104F80008091D90080FF0DC080E189BD82E189BD9B
:104F900009B400FEFDCF81E0809303030E94E0236B
:104FA00005C019BC109203030E94EE238091E1001A
:104FB00080FF19C08091E20080FF15C08091E2005F
:104FC0008E7F8093E2008091E20080618093E20016
:104FD0008091D80080628093D80019BC85E08093CE
:104FE00003030E94F2238091E10084FF30C080918E
:104FF000E20084FF2CC080E189BD82E189BD09B453
:1050000000FEFDCF8091D8008F7D8093D8008091E5
:10501000E1008F7E8093E1008091E2008F7E80939B
:10502000E2008091E20081608093E2008091FF02C3
:10503000882311F084E007C08091E30087FD02C05F
:1050400081E001C083E0809303030E94F3238091F9
:10505000E10083FF29C08091E20083FF25C0809199
:10506000E100877F8093E10082E080930303109248
:10507000FF028091E1008E7F8093E1008091E20049
:105080008E7F8093E2008091E20080618093E20055
:1050900042E060E080E00E9492268091F00088600B
:1050A0008093F0000E94F123FF91EF91BF91AF91A7
:1050B0009F918F917F916F915F914F913F912F9130
:1050C0000F900FBE0F901F9018951F920F920FB662
:1050D0000F9211242F933F934F935F936F937F937E
:1050E0008F939F93AF93BF93CF93DF93EF93FF93F0
:1050F000C091E900CF708091EC00D82FD17080FD75
:10510000D0E81092E9008091F000877F8093F00052
:1051100078940E94A9281092E9008091F00088609C
:105120008093F000CD2BCF70C093E900FF91EF91F9
:10513000DF91CF91BF91AF919F918F917F916F91AF
:105140005F914F913F912F910F900FBE0F901F9045
:1051500018951F93CF93DF93CDB7DEB7AA970FB6FD
:10516000F894DEBF0FBECDBFE4E0F3E088E08E0F21
:105170009091F10091938E13FBCF0E94FF238091B9
:10518000E80083FF28C18091040390910503492F13
:1051900050E04A30510508F01EC1FA01E857FF4FB0
:1051A0000C94792A803821F0823809F014C108C0A3
:1051B0008091000390910103992389F082600FC0D0
:1051C000809108038F70873008F005C18093E90053
:1051D0008091EB0085FB882780F91092E90090917F
:1051E000E800977F9093E8008093F1001092F1001F
:1051F000D0C0282F2D7F09F0EEC0882319F082300F
:1052000061F0E9C080910603813009F0E4C0933079
:1052100009F080E0809301032EC080910603811184
:105220002AC0809108038F702FEF280F263008F0D6
:10523000D2C08093E9002091EB0020FF1CC0933086
:1052400021F48091EB00806214C09091EB0090619A
:105250009093EB0021E030E0A90102C0440F551FFC
:105260008A95E2F74093EA001092EA008091EB0001
:1052700088608093EB001092E9008091E800877FBE
:105280008093E8000E94C726A6C08111A4C0109197
:1052900006031F778091E3008078812B8093E300E1
:1052A0008091E800877F8093E8000E94C726809164
:1052B000E80080FFFCCF8091E30080688093E300EA
:1052C000111102C082E001C083E08093030383C018
:1052D0008058823008F07FC08091060390910703C8
:1052E0008C3D53E0950779F583E08A838AE28983D0
:1052F0004FB7F894DE01139620E03EE051E2E32F31
:10530000F0E050935700E49120FF03C0E295EF7066
:105310003F5FEF708E2F90E0EA3010F0C79601C02B
:10532000C0968D939D932F5F243149F74FBF809195
:10533000E800877F8093E8006AE270E0CE01019682
:105340000E94CE2515C06091080370910903AE013B
:105350004F5F5F4F0E94FB24BC01892BE1F19091CC
:10536000E800977F9093E80089819A810E94312616
:105370008091E8008B778093E8002DC0803859F544
:105380008091E800877F8093E8008091FF028093FE
:10539000F1008091E8008E7773CF81111CC090914D
:1053A00006039230C0F48091E800877F8093E80084
:1053B0009093FF020E94C7268091FF02811106C0D0
:1053C0008091E30087FD02C081E001C084E080930A
:1053D00003030E94F5238091E80083FF0AC08091B7
:1053E000E800877F8093E8008091EB0080628093E3
:1053F000EB00AA960FB6F894DEBF0FBECDBFDF91CB
:10540000CF911F9108950895CF938091030388232E
:10541000A1F0C091E900CF709091EC00892F8170CC
:1054200090FD80E8C82B1092E9008091E80083FD90
:105430000E94A928CF70C093E900CF910895DB01A5
:105440008F939F930E948E2ABF91AF91A29F800D50
:10545000911DA39F900DB29F900D11240895AA1B3A
:10546000BB1B51E107C0AA1FBB1FA617B70710F04F
:10547000A61BB70B881F991F5A95A9F78095909581
:10548000BC01CD01089597FB072E16F4009407D0B8
:1054900077FD09D00E942F2A07FC05D03EF4909595
:1054A00081959F4F0895709561957F4F0895A1E272
:1054B0001A2EAA1BBB1BFD010DC0AA1FBB1FEE1F8E
:1054C000FF1FA217B307E407F50720F0A21BB30BD9
:1054D000E40BF50B661F771F881F991F1A9469F755
:1054E00060957095809590959B01AC01BD01CF01B1
:1054F0000895EE0FFF1F0590F491E02D0994A29FEF
:10550000B001B39FC001A39F700D811D1124911D97
:10551000B29F700D811D1124911D08950E947F2A54
:10552000A59F900DB49F900DA49F800D911D1124F7
:105530000895FC014150504030F001900616D1F71B
:105540003197CF010895882799270895F999FECFBB
:1055500092BD81BDF89A992780B50895A6E1B0E083
:1055600044E050E00C94E02AA8E1B0E042E050E0D2
:105570000C94E02A262FF999FECF92BD81BDF89AAE
:10558000019700B4021639F01FBA20BD0FB6F89487
:10559000FA9AF99A0FBE08950396272F0E94BB2A04
:1055A0000E94BA2A252F0E94BB2A242F0C94BB2AC2
:1055B0000196272F0E94BB2A0C94BA2ADC01CB014A
:1055C000FC01F999FECF06C0F2BDE1BDF89A319613
:1055D00000B40D9241505040B8F70895F894FFCFB1
:1055E000010210101001191A1B1C1D1E1F20212260
:1055F00059022808140A321E202399236E23682397
:10560000562301E200E900EA00B500B600B700CD7C
:10561000008301CC008A019201940121022302241B
:10562000022502260227022A02B300B4006F00708E
:1056300000818283F0F1C667663794313035349744
:105640009633F490919293950001020202020606AD
:10565000060909090909090F0F0F0F0F0F15151575
:1056600018191919191919191919192324E200E916
:1056700000EA00B500B600B700CD008301CC008A77
:10568000019201940121022302240225022602270D
:0E569000022A02B300B4006F00700081828312
:00000001FF
